{
  "_format": "hh-sol-artifact-1",
  "contractName": "Hospital",
  "sourceName": "contracts/Hospital.sol",
  "abi": [
    {
      "inputs": [
        {
          "internalType": "string",
          "name": "_name",
          "type": "string"
        },
        {
          "internalType": "uint256",
          "name": "_age",
          "type": "uint256"
        },
        {
          "internalType": "uint256",
          "name": "_designation",
          "type": "uint256"
        }
      ],
      "name": "add_agent",
      "outputs": [
        {
          "internalType": "string",
          "name": "",
          "type": "string"
        }
      ],
      "stateMutability": "nonpayable",
      "type": "function"
    },
    {
      "inputs": [
        {
          "internalType": "address",
          "name": "_patientAddress",
          "type": "address"
        },
        {
          "internalType": "string",
          "name": "_doctorName",
          "type": "string"
        },
        {
          "internalType": "string",
          "name": "_symptoms",
          "type": "string"
        },
        {
          "internalType": "string",
          "name": "_diagnosis",
          "type": "string"
        },
        {
          "internalType": "string",
          "name": "_treatment",
          "type": "string"
        },
        {
          "internalType": "string",
          "name": "_medication",
          "type": "string"
        },
        {
          "internalType": "string",
          "name": "_detail",
          "type": "string"
        },
        {
          "internalType": "string",
          "name": "_report",
          "type": "string"
        },
        {
          "internalType": "string",
          "name": "_bill",
          "type": "string"
        }
      ],
      "name": "add_record",
      "outputs": [],
      "stateMutability": "nonpayable",
      "type": "function"
    },
    {
      "inputs": [
        {
          "internalType": "uint256",
          "name": "",
          "type": "uint256"
        }
      ],
      "name": "doctorList",
      "outputs": [
        {
          "internalType": "address",
          "name": "",
          "type": "address"
        }
      ],
      "stateMutability": "view",
      "type": "function"
    },
    {
      "inputs": [
        {
          "internalType": "address",
          "name": "addr",
          "type": "address"
        }
      ],
      "name": "get_Doctors_Patient",
      "outputs": [
        {
          "components": [
            {
              "internalType": "address",
              "name": "patientAddress",
              "type": "address"
            },
            {
              "internalType": "string",
              "name": "doctorName",
              "type": "string"
            },
            {
              "internalType": "string",
              "name": "symptoms",
              "type": "string"
            },
            {
              "internalType": "string",
              "name": "diagnosis",
              "type": "string"
            },
            {
              "internalType": "string",
              "name": "treatment",
              "type": "string"
            },
            {
              "internalType": "string",
              "name": "Medication",
              "type": "string"
            },
            {
              "internalType": "string",
              "name": "details",
              "type": "string"
            },
            {
              "internalType": "string",
              "name": "report",
              "type": "string"
            },
            {
              "internalType": "string",
              "name": "bill",
              "type": "string"
            },
            {
              "internalType": "string",
              "name": "state",
              "type": "string"
            }
          ],
          "internalType": "struct Hospital.record[]",
          "name": "",
          "type": "tuple[]"
        }
      ],
      "stateMutability": "view",
      "type": "function"
    },
    {
      "inputs": [
        {
          "internalType": "address",
          "name": "addr",
          "type": "address"
        }
      ],
      "name": "get_accessed_doctorlist_for_patient",
      "outputs": [
        {
          "internalType": "address[]",
          "name": "",
          "type": "address[]"
        }
      ],
      "stateMutability": "view",
      "type": "function"
    },
    {
      "inputs": [
        {
          "internalType": "address",
          "name": "addr",
          "type": "address"
        }
      ],
      "name": "get_doctor",
      "outputs": [
        {
          "internalType": "string",
          "name": "",
          "type": "string"
        },
        {
          "internalType": "uint256",
          "name": "",
          "type": "uint256"
        }
      ],
      "stateMutability": "view",
      "type": "function"
    },
    {
      "inputs": [],
      "name": "get_doctor_list",
      "outputs": [
        {
          "internalType": "address[]",
          "name": "",
          "type": "address[]"
        }
      ],
      "stateMutability": "view",
      "type": "function"
    },
    {
      "inputs": [
        {
          "internalType": "address",
          "name": "addr",
          "type": "address"
        }
      ],
      "name": "get_patient",
      "outputs": [
        {
          "internalType": "string",
          "name": "",
          "type": "string"
        },
        {
          "internalType": "uint256",
          "name": "",
          "type": "uint256"
        },
        {
          "components": [
            {
              "internalType": "address",
              "name": "patientAddress",
              "type": "address"
            },
            {
              "internalType": "string",
              "name": "doctorName",
              "type": "string"
            },
            {
              "internalType": "string",
              "name": "symptoms",
              "type": "string"
            },
            {
              "internalType": "string",
              "name": "diagnosis",
              "type": "string"
            },
            {
              "internalType": "string",
              "name": "treatment",
              "type": "string"
            },
            {
              "internalType": "string",
              "name": "Medication",
              "type": "string"
            },
            {
              "internalType": "string",
              "name": "details",
              "type": "string"
            },
            {
              "internalType": "string",
              "name": "report",
              "type": "string"
            },
            {
              "internalType": "string",
              "name": "bill",
              "type": "string"
            },
            {
              "internalType": "string",
              "name": "state",
              "type": "string"
            }
          ],
          "internalType": "struct Hospital.record[]",
          "name": "",
          "type": "tuple[]"
        }
      ],
      "stateMutability": "view",
      "type": "function"
    },
    {
      "inputs": [
        {
          "internalType": "address",
          "name": "paddr",
          "type": "address"
        },
        {
          "internalType": "address",
          "name": "daddr",
          "type": "address"
        }
      ],
      "name": "get_patient_doctor_name",
      "outputs": [
        {
          "internalType": "string",
          "name": "",
          "type": "string"
        },
        {
          "internalType": "string",
          "name": "",
          "type": "string"
        }
      ],
      "stateMutability": "view",
      "type": "function"
    },
    {
      "inputs": [],
      "name": "get_patient_list",
      "outputs": [
        {
          "internalType": "address[]",
          "name": "",
          "type": "address[]"
        }
      ],
      "stateMutability": "view",
      "type": "function"
    },
    {
      "inputs": [
        {
          "internalType": "uint256",
          "name": "",
          "type": "uint256"
        }
      ],
      "name": "patientList",
      "outputs": [
        {
          "internalType": "address",
          "name": "",
          "type": "address"
        }
      ],
      "stateMutability": "view",
      "type": "function"
    },
    {
      "inputs": [
        {
          "internalType": "address",
          "name": "addr",
          "type": "address"
        }
      ],
      "name": "permit_access",
      "outputs": [],
      "stateMutability": "nonpayable",
      "type": "function"
    },
    {
      "inputs": [
        {
          "internalType": "uint256",
          "name": "",
          "type": "uint256"
        }
      ],
      "name": "recordList",
      "outputs": [
        {
          "internalType": "address",
          "name": "patientAddress",
          "type": "address"
        },
        {
          "internalType": "string",
          "name": "doctorName",
          "type": "string"
        },
        {
          "internalType": "string",
          "name": "symptoms",
          "type": "string"
        },
        {
          "internalType": "string",
          "name": "diagnosis",
          "type": "string"
        },
        {
          "internalType": "string",
          "name": "treatment",
          "type": "string"
        },
        {
          "internalType": "string",
          "name": "Medication",
          "type": "string"
        },
        {
          "internalType": "string",
          "name": "details",
          "type": "string"
        },
        {
          "internalType": "string",
          "name": "report",
          "type": "string"
        },
        {
          "internalType": "string",
          "name": "bill",
          "type": "string"
        },
        {
          "internalType": "string",
          "name": "state",
          "type": "string"
        }
      ],
      "stateMutability": "view",
      "type": "function"
    },
    {
      "inputs": [
        {
          "internalType": "address",
          "name": "paddr",
          "type": "address"
        },
        {
          "internalType": "address",
          "name": "daddr",
          "type": "address"
        }
      ],
      "name": "remove_patient",
      "outputs": [],
      "stateMutability": "nonpayable",
      "type": "function"
    },
    {
      "inputs": [
        {
          "internalType": "address",
          "name": "daddr",
          "type": "address"
        }
      ],
      "name": "revoke_access",
      "outputs": [],
      "stateMutability": "nonpayable",
      "type": "function"
    }
  ],
  "bytecode": "0x6080604052734ef1dbc2f04ebedd954ff762b5d23b9040916f566000806101000a81548173ffffffffffffffffffffffffffffffffffffffff021916908373ffffffffffffffffffffffffffffffffffffffff16021790555034801561006457600080fd5b50613307806100746000396000f3fe608060405234801561001057600080fd5b50600436106100f45760003560e01c80634672675811610097578063babb1d4111610066578063babb1d41146102da578063bcffb7ca1461030a578063c39e963514610326578063e81ac05414610344576100f4565b8063467267581461022d57806356c98c481461025d5780637e15ac0a1461028e578063b46a3652146102aa576100f4565b806319da83a8116100d357806319da83a8146101755780631e3fc3b8146101ae57806327b1dcee146101df5780634042d2d4146101fb576100f4565b80627ee3ce146100f95780630362fe9b14610129578063127ca4b414610145575b600080fd5b610113600480360381019061010e9190612798565b610362565b6040516101209190612e14565b60405180910390f35b610143600480360381019061013e91906127c5565b610438565b005b61015f600480360381019061015a9190612a1e565b6104d4565b60405161016c9190612d1e565b60405180910390f35b61018f600480360381019061018a9190612a1e565b610513565b6040516101a59a99989796959493929190612d39565b60405180910390f35b6101c860048036038101906101c391906127c5565b610a5f565b6040516101d6929190612e7a565b60405180910390f35b6101f960048036038101906101f49190612798565b610c09565b005b61021560048036038101906102109190612798565b610c16565b60405161022493929190612ee1565b60405180910390f35b610247600480360381019061024291906129af565b61134e565b6040516102549190612e58565b60405180910390f35b61027760048036038101906102729190612798565b611587565b604051610285929190612eb1565b60405180910390f35b6102a860048036038101906102a39190612805565b6116a5565b005b6102c460048036038101906102bf9190612798565b611b9b565b6040516102d19190612e36565b60405180910390f35b6102f460048036038101906102ef9190612a1e565b6121b5565b6040516103019190612d1e565b60405180910390f35b610324600480360381019061031f9190612798565b6121f4565b005b61032e61233d565b60405161033b9190612e14565b60405180910390f35b61034c6123cb565b6040516103599190612e14565b60405180910390f35b60606000600460008473ffffffffffffffffffffffffffffffffffffffff1673ffffffffffffffffffffffffffffffffffffffff16815260200190815260200160002060020190508080548060200260200160405190810160405280929190818152602001828054801561042b57602002820191906000526020600020905b8160009054906101000a900473ffffffffffffffffffffffffffffffffffffffff1673ffffffffffffffffffffffffffffffffffffffff16815260200190600101908083116103e1575b5050505050915050919050565b610483600560008373ffffffffffffffffffffffffffffffffffffffff1673ffffffffffffffffffffffffffffffffffffffff16815260200190815260200160002060020183612459565b506104cf600460008473ffffffffffffffffffffffffffffffffffffffff1673ffffffffffffffffffffffffffffffffffffffff16815260200190815260200160002060020182612459565b505050565b600281815481106104e457600080fd5b906000526020600020016000915054906101000a900473ffffffffffffffffffffffffffffffffffffffff1681565b6003818154811061052357600080fd5b90600052602060002090600a02016000915090508060000160009054906101000a900473ffffffffffffffffffffffffffffffffffffffff169080600101805461056c906130ed565b80601f0160208091040260200160405190810160405280929190818152602001828054610598906130ed565b80156105e55780601f106105ba576101008083540402835291602001916105e5565b820191906000526020600020905b8154815290600101906020018083116105c857829003601f168201915b5050505050908060020180546105fa906130ed565b80601f0160208091040260200160405190810160405280929190818152602001828054610626906130ed565b80156106735780601f1061064857610100808354040283529160200191610673565b820191906000526020600020905b81548152906001019060200180831161065657829003601f168201915b505050505090806003018054610688906130ed565b80601f01602080910402602001604051908101604052809291908181526020018280546106b4906130ed565b80156107015780601f106106d657610100808354040283529160200191610701565b820191906000526020600020905b8154815290600101906020018083116106e457829003601f168201915b505050505090806004018054610716906130ed565b80601f0160208091040260200160405190810160405280929190818152602001828054610742906130ed565b801561078f5780601f106107645761010080835404028352916020019161078f565b820191906000526020600020905b81548152906001019060200180831161077257829003601f168201915b5050505050908060050180546107a4906130ed565b80601f01602080910402602001604051908101604052809291908181526020018280546107d0906130ed565b801561081d5780601f106107f25761010080835404028352916020019161081d565b820191906000526020600020905b81548152906001019060200180831161080057829003601f168201915b505050505090806006018054610832906130ed565b80601f016020809104026020016040519081016040528092919081815260200182805461085e906130ed565b80156108ab5780601f10610880576101008083540402835291602001916108ab565b820191906000526020600020905b81548152906001019060200180831161088e57829003601f168201915b5050505050908060070180546108c0906130ed565b80601f01602080910402602001604051908101604052809291908181526020018280546108ec906130ed565b80156109395780601f1061090e57610100808354040283529160200191610939565b820191906000526020600020905b81548152906001019060200180831161091c57829003601f168201915b50505050509080600801805461094e906130ed565b80601f016020809104026020016040519081016040528092919081815260200182805461097a906130ed565b80156109c75780601f1061099c576101008083540402835291602001916109c7565b820191906000526020600020905b8154815290600101906020018083116109aa57829003601f168201915b5050505050908060090180546109dc906130ed565b80601f0160208091040260200160405190810160405280929190818152602001828054610a08906130ed565b8015610a555780601f10610a2a57610100808354040283529160200191610a55565b820191906000526020600020905b815481529060010190602001808311610a3857829003601f168201915b505050505090508a565b606080600460008573ffffffffffffffffffffffffffffffffffffffff1673ffffffffffffffffffffffffffffffffffffffff168152602001908152602001600020600001600560008573ffffffffffffffffffffffffffffffffffffffff1673ffffffffffffffffffffffffffffffffffffffff168152602001908152602001600020600001818054610af2906130ed565b80601f0160208091040260200160405190810160405280929190818152602001828054610b1e906130ed565b8015610b6b5780601f10610b4057610100808354040283529160200191610b6b565b820191906000526020600020905b815481529060010190602001808311610b4e57829003601f168201915b50505050509150808054610b7e906130ed565b80601f0160208091040260200160405190810160405280929190818152602001828054610baa906130ed565b8015610bf75780601f10610bcc57610100808354040283529160200191610bf7565b820191906000526020600020905b815481529060010190602001808311610bda57829003601f168201915b50505050509050915091509250929050565b610c133382610438565b50565b606060006060600460008573ffffffffffffffffffffffffffffffffffffffff1673ffffffffffffffffffffffffffffffffffffffff168152602001908152602001600020600001600460008673ffffffffffffffffffffffffffffffffffffffff1673ffffffffffffffffffffffffffffffffffffffff16815260200190815260200160002060010154600460008773ffffffffffffffffffffffffffffffffffffffff1673ffffffffffffffffffffffffffffffffffffffff168152602001908152602001600020600301828054610cef906130ed565b80601f0160208091040260200160405190810160405280929190818152602001828054610d1b906130ed565b8015610d685780601f10610d3d57610100808354040283529160200191610d68565b820191906000526020600020905b815481529060010190602001808311610d4b57829003601f168201915b5050505050925080805480602002602001604051908101604052809291908181526020016000905b8282101561133b57838290600052602060002090600a0201604051806101400160405290816000820160009054906101000a900473ffffffffffffffffffffffffffffffffffffffff1673ffffffffffffffffffffffffffffffffffffffff1673ffffffffffffffffffffffffffffffffffffffff168152602001600182018054610e1a906130ed565b80601f0160208091040260200160405190810160405280929190818152602001828054610e46906130ed565b8015610e935780601f10610e6857610100808354040283529160200191610e93565b820191906000526020600020905b815481529060010190602001808311610e7657829003601f168201915b50505050508152602001600282018054610eac906130ed565b80601f0160208091040260200160405190810160405280929190818152602001828054610ed8906130ed565b8015610f255780601f10610efa57610100808354040283529160200191610f25565b820191906000526020600020905b815481529060010190602001808311610f0857829003601f168201915b50505050508152602001600382018054610f3e906130ed565b80601f0160208091040260200160405190810160405280929190818152602001828054610f6a906130ed565b8015610fb75780601f10610f8c57610100808354040283529160200191610fb7565b820191906000526020600020905b815481529060010190602001808311610f9a57829003601f168201915b50505050508152602001600482018054610fd0906130ed565b80601f0160208091040260200160405190810160405280929190818152602001828054610ffc906130ed565b80156110495780601f1061101e57610100808354040283529160200191611049565b820191906000526020600020905b81548152906001019060200180831161102c57829003601f168201915b50505050508152602001600582018054611062906130ed565b80601f016020809104026020016040519081016040528092919081815260200182805461108e906130ed565b80156110db5780601f106110b0576101008083540402835291602001916110db565b820191906000526020600020905b8154815290600101906020018083116110be57829003601f168201915b505050505081526020016006820180546110f4906130ed565b80601f0160208091040260200160405190810160405280929190818152602001828054611120906130ed565b801561116d5780601f106111425761010080835404028352916020019161116d565b820191906000526020600020905b81548152906001019060200180831161115057829003601f168201915b50505050508152602001600782018054611186906130ed565b80601f01602080910402602001604051908101604052809291908181526020018280546111b2906130ed565b80156111ff5780601f106111d4576101008083540402835291602001916111ff565b820191906000526020600020905b8154815290600101906020018083116111e257829003601f168201915b50505050508152602001600882018054611218906130ed565b80601f0160208091040260200160405190810160405280929190818152602001828054611244906130ed565b80156112915780601f1061126657610100808354040283529160200191611291565b820191906000526020600020905b81548152906001019060200180831161127457829003601f168201915b505050505081526020016009820180546112aa906130ed565b80601f01602080910402602001604051908101604052809291908181526020018280546112d6906130ed565b80156113235780601f106112f857610100808354040283529160200191611323565b820191906000526020600020905b81548152906001019060200180831161130657829003601f168201915b50505050508152505081526020019060010190610d90565b5050505090509250925092509193909250565b6060600033905060008314156114685784600460003373ffffffffffffffffffffffffffffffffffffffff1673ffffffffffffffffffffffffffffffffffffffff16815260200190815260200160002060000190805190602001906113b492919061265b565b5083600460003373ffffffffffffffffffffffffffffffffffffffff1673ffffffffffffffffffffffffffffffffffffffff168152602001908152602001600020600101819055506001819080600181540180825580915050600190039060005260206000200160009091909190916101000a81548173ffffffffffffffffffffffffffffffffffffffff021916908373ffffffffffffffffffffffffffffffffffffffff16021790555084915050611580565b600183141561157b5784600560008373ffffffffffffffffffffffffffffffffffffffff1673ffffffffffffffffffffffffffffffffffffffff16815260200190815260200160002060000190805190602001906114c792919061265b565b5083600560008373ffffffffffffffffffffffffffffffffffffffff1673ffffffffffffffffffffffffffffffffffffffff168152602001908152602001600020600101819055506002819080600181540180825580915050600190039060005260206000200160009091909190916101000a81548173ffffffffffffffffffffffffffffffffffffffff021916908373ffffffffffffffffffffffffffffffffffffffff16021790555084915050611580565b600080fd5b9392505050565b60606000600560008473ffffffffffffffffffffffffffffffffffffffff1673ffffffffffffffffffffffffffffffffffffffff168152602001908152602001600020600001600560008573ffffffffffffffffffffffffffffffffffffffff1673ffffffffffffffffffffffffffffffffffffffff1681526020019081526020016000206001015481805461161c906130ed565b80601f0160208091040260200160405190810160405280929190818152602001828054611648906130ed565b80156116955780601f1061166a57610100808354040283529160200191611695565b820191906000526020600020905b81548152906001019060200180831161167857829003601f168201915b5050505050915091509150915091565b6000805b600280549050811015611740573373ffffffffffffffffffffffffffffffffffffffff16600282815481106116e1576116e06131f7565b5b9060005260206000200160009054906101000a900473ffffffffffffffffffffffffffffffffffffffff1673ffffffffffffffffffffffffffffffffffffffff16141561172d57600191505b808061173890613150565b9150506116a9565b5080611781576040517f08c379a000000000000000000000000000000000000000000000000000000000815260040161177890612f26565b60405180910390fd5b60006040518061014001604052808c73ffffffffffffffffffffffffffffffffffffffff1681526020018b81526020018a81526020018981526020018881526020018781526020018681526020018581526020018481526020016040518060400160405280600381526020017f6e657700000000000000000000000000000000000000000000000000000000008152508152509050600460008c73ffffffffffffffffffffffffffffffffffffffff1673ffffffffffffffffffffffffffffffffffffffff1681526020019081526020016000206003018190806001815401808255809150506001900390600052602060002090600a020160009091909190915060008201518160000160006101000a81548173ffffffffffffffffffffffffffffffffffffffff021916908373ffffffffffffffffffffffffffffffffffffffff16021790555060208201518160010190805190602001906118e592919061265b565b50604082015181600201908051906020019061190292919061265b565b50606082015181600301908051906020019061191f92919061265b565b50608082015181600401908051906020019061193c92919061265b565b5060a082015181600501908051906020019061195992919061265b565b5060c082015181600601908051906020019061197692919061265b565b5060e082015181600701908051906020019061199392919061265b565b506101008201518160080190805190602001906119b192919061265b565b506101208201518160090190805190602001906119cf92919061265b565b505050600560003373ffffffffffffffffffffffffffffffffffffffff1673ffffffffffffffffffffffffffffffffffffffff1681526020019081526020016000206003018190806001815401808255809150506001900390600052602060002090600a020160009091909190915060008201518160000160006101000a81548173ffffffffffffffffffffffffffffffffffffffff021916908373ffffffffffffffffffffffffffffffffffffffff1602179055506020820151816001019080519060200190611aa192919061265b565b506040820151816002019080519060200190611abe92919061265b565b506060820151816003019080519060200190611adb92919061265b565b506080820151816004019080519060200190611af892919061265b565b5060a0820151816005019080519060200190611b1592919061265b565b5060c0820151816006019080519060200190611b3292919061265b565b5060e0820151816007019080519060200190611b4f92919061265b565b50610100820151816008019080519060200190611b6d92919061265b565b50610120820151816009019080519060200190611b8b92919061265b565b5050505050505050505050505050565b6060600560008373ffffffffffffffffffffffffffffffffffffffff1673ffffffffffffffffffffffffffffffffffffffff168152602001908152602001600020600301805480602002602001604051908101604052809291908181526020016000905b828210156121aa57838290600052602060002090600a0201604051806101400160405290816000820160009054906101000a900473ffffffffffffffffffffffffffffffffffffffff1673ffffffffffffffffffffffffffffffffffffffff1673ffffffffffffffffffffffffffffffffffffffff168152602001600182018054611c89906130ed565b80601f0160208091040260200160405190810160405280929190818152602001828054611cb5906130ed565b8015611d025780601f10611cd757610100808354040283529160200191611d02565b820191906000526020600020905b815481529060010190602001808311611ce557829003601f168201915b50505050508152602001600282018054611d1b906130ed565b80601f0160208091040260200160405190810160405280929190818152602001828054611d47906130ed565b8015611d945780601f10611d6957610100808354040283529160200191611d94565b820191906000526020600020905b815481529060010190602001808311611d7757829003601f168201915b50505050508152602001600382018054611dad906130ed565b80601f0160208091040260200160405190810160405280929190818152602001828054611dd9906130ed565b8015611e265780601f10611dfb57610100808354040283529160200191611e26565b820191906000526020600020905b815481529060010190602001808311611e0957829003601f168201915b50505050508152602001600482018054611e3f906130ed565b80601f0160208091040260200160405190810160405280929190818152602001828054611e6b906130ed565b8015611eb85780601f10611e8d57610100808354040283529160200191611eb8565b820191906000526020600020905b815481529060010190602001808311611e9b57829003601f168201915b50505050508152602001600582018054611ed1906130ed565b80601f0160208091040260200160405190810160405280929190818152602001828054611efd906130ed565b8015611f4a5780601f10611f1f57610100808354040283529160200191611f4a565b820191906000526020600020905b815481529060010190602001808311611f2d57829003601f168201915b50505050508152602001600682018054611f63906130ed565b80601f0160208091040260200160405190810160405280929190818152602001828054611f8f906130ed565b8015611fdc5780601f10611fb157610100808354040283529160200191611fdc565b820191906000526020600020905b815481529060010190602001808311611fbf57829003601f168201915b50505050508152602001600782018054611ff5906130ed565b80601f0160208091040260200160405190810160405280929190818152602001828054612021906130ed565b801561206e5780601f106120435761010080835404028352916020019161206e565b820191906000526020600020905b81548152906001019060200180831161205157829003601f168201915b50505050508152602001600882018054612087906130ed565b80601f01602080910402602001604051908101604052809291908181526020018280546120b3906130ed565b80156121005780601f106120d557610100808354040283529160200191612100565b820191906000526020600020905b8154815290600101906020018083116120e357829003601f168201915b50505050508152602001600982018054612119906130ed565b80601f0160208091040260200160405190810160405280929190818152602001828054612145906130ed565b80156121925780601f1061216757610100808354040283529160200191612192565b820191906000526020600020905b81548152906001019060200180831161217557829003601f168201915b50505050508152505081526020019060010190611bff565b505050509050919050565b600181815481106121c557600080fd5b906000526020600020016000915054906101000a900473ffffffffffffffffffffffffffffffffffffffff1681565b600560008273ffffffffffffffffffffffffffffffffffffffff1673ffffffffffffffffffffffffffffffffffffffff168152602001908152602001600020600201339080600181540180825580915050600190039060005260206000200160009091909190916101000a81548173ffffffffffffffffffffffffffffffffffffffff021916908373ffffffffffffffffffffffffffffffffffffffff160217905550600460003373ffffffffffffffffffffffffffffffffffffffff1673ffffffffffffffffffffffffffffffffffffffff168152602001908152602001600020600201819080600181540180825580915050600190039060005260206000200160009091909190916101000a81548173ffffffffffffffffffffffffffffffffffffffff021916908373ffffffffffffffffffffffffffffffffffffffff16021790555050565b606060028054806020026020016040519081016040528092919081815260200182805480156123c157602002820191906000526020600020905b8160009054906101000a900473ffffffffffffffffffffffffffffffffffffffff1673ffffffffffffffffffffffffffffffffffffffff1681526020019060010190808311612377575b5050505050905090565b6060600180548060200260200160405190810160405280929190818152602001828054801561244f57602002820191906000526020600020905b8160009054906101000a900473ffffffffffffffffffffffffffffffffffffffff1673ffffffffffffffffffffffffffffffffffffffff1681526020019060010190808311612405575b5050505050905090565b600080600090506000805b85805490508110156124fc578473ffffffffffffffffffffffffffffffffffffffff1686828154811061249a576124996131f7565b5b9060005260206000200160009054906101000a900473ffffffffffffffffffffffffffffffffffffffff1673ffffffffffffffffffffffffffffffffffffffff1614156124e957600192508091505b80806124f490613150565b915050612464565b508161250757600080fd5b60018580549050141561255957848181548110612527576125266131f7565b5b9060005260206000200160006101000a81549073ffffffffffffffffffffffffffffffffffffffff0219169055612653565b846001868054905061256b919061303b565b8154811061257c5761257b6131f7565b5b9060005260206000200160009054906101000a900473ffffffffffffffffffffffffffffffffffffffff168582815481106125ba576125b96131f7565b5b9060005260206000200160006101000a81548173ffffffffffffffffffffffffffffffffffffffff021916908373ffffffffffffffffffffffffffffffffffffffff1602179055508460018680549050612614919061303b565b81548110612625576126246131f7565b5b9060005260206000200160006101000a81549073ffffffffffffffffffffffffffffffffffffffff02191690555b505092915050565b828054612667906130ed565b90600052602060002090601f01602090048101928261268957600085556126d0565b82601f106126a257805160ff19168380011785556126d0565b828001600101855582156126d0579182015b828111156126cf5782518255916020019190600101906126b4565b5b5090506126dd91906126e1565b5090565b5b808211156126fa5760008160009055506001016126e2565b5090565b600061271161270c84612f6b565b612f46565b90508281526020810184848401111561272d5761272c61325a565b5b6127388482856130ab565b509392505050565b60008135905061274f816132a3565b92915050565b600082601f83011261276a57612769613255565b5b813561277a8482602086016126fe565b91505092915050565b600081359050612792816132ba565b92915050565b6000602082840312156127ae576127ad613264565b5b60006127bc84828501612740565b91505092915050565b600080604083850312156127dc576127db613264565b5b60006127ea85828601612740565b92505060206127fb85828601612740565b9150509250929050565b60008060008060008060008060006101208a8c03121561282857612827613264565b5b60006128368c828d01612740565b99505060208a013567ffffffffffffffff8111156128575761285661325f565b5b6128638c828d01612755565b98505060408a013567ffffffffffffffff8111156128845761288361325f565b5b6128908c828d01612755565b97505060608a013567ffffffffffffffff8111156128b1576128b061325f565b5b6128bd8c828d01612755565b96505060808a013567ffffffffffffffff8111156128de576128dd61325f565b5b6128ea8c828d01612755565b95505060a08a013567ffffffffffffffff81111561290b5761290a61325f565b5b6129178c828d01612755565b94505060c08a013567ffffffffffffffff8111156129385761293761325f565b5b6129448c828d01612755565b93505060e08a013567ffffffffffffffff8111156129655761296461325f565b5b6129718c828d01612755565b9250506101008a013567ffffffffffffffff8111156129935761299261325f565b5b61299f8c828d01612755565b9150509295985092959850929598565b6000806000606084860312156129c8576129c7613264565b5b600084013567ffffffffffffffff8111156129e6576129e561325f565b5b6129f286828701612755565b9350506020612a0386828701612783565b9250506040612a1486828701612783565b9150509250925092565b600060208284031215612a3457612a33613264565b5b6000612a4284828501612783565b91505092915050565b6000612a578383612a77565b60208301905092915050565b6000612a6f8383612bfd565b905092915050565b612a808161306f565b82525050565b612a8f8161306f565b82525050565b6000612aa082612fbc565b612aaa8185612ff7565b9350612ab583612f9c565b8060005b83811015612ae6578151612acd8882612a4b565b9750612ad883612fdd565b925050600181019050612ab9565b5085935050505092915050565b6000612afe82612fc7565b612b088185613008565b935083602082028501612b1a85612fac565b8060005b85811015612b565784840389528151612b378582612a63565b9450612b4283612fea565b925060208a01995050600181019050612b1e565b50829750879550505050505092915050565b6000612b7382612fd2565b612b7d8185613019565b9350612b8d8185602086016130ba565b612b9681613269565b840191505092915050565b6000612bac82612fd2565b612bb6818561302a565b9350612bc68185602086016130ba565b612bcf81613269565b840191505092915050565b6000612be760148361302a565b9150612bf28261327a565b602082019050919050565b600061014083016000830151612c166000860182612a77565b5060208301518482036020860152612c2e8282612b68565b91505060408301518482036040860152612c488282612b68565b91505060608301518482036060860152612c628282612b68565b91505060808301518482036080860152612c7c8282612b68565b91505060a083015184820360a0860152612c968282612b68565b91505060c083015184820360c0860152612cb08282612b68565b91505060e083015184820360e0860152612cca8282612b68565b915050610100830151848203610100860152612ce68282612b68565b915050610120830151848203610120860152612d028282612b68565b9150508091505092915050565b612d18816130a1565b82525050565b6000602082019050612d336000830184612a86565b92915050565b600061014082019050612d4f600083018d612a86565b8181036020830152612d61818c612ba1565b90508181036040830152612d75818b612ba1565b90508181036060830152612d89818a612ba1565b90508181036080830152612d9d8189612ba1565b905081810360a0830152612db18188612ba1565b905081810360c0830152612dc58187612ba1565b905081810360e0830152612dd98186612ba1565b9050818103610100830152612dee8185612ba1565b9050818103610120830152612e038184612ba1565b90509b9a5050505050505050505050565b60006020820190508181036000830152612e2e8184612a95565b905092915050565b60006020820190508181036000830152612e508184612af3565b905092915050565b60006020820190508181036000830152612e728184612ba1565b905092915050565b60006040820190508181036000830152612e948185612ba1565b90508181036020830152612ea88184612ba1565b90509392505050565b60006040820190508181036000830152612ecb8185612ba1565b9050612eda6020830184612d0f565b9392505050565b60006060820190508181036000830152612efb8186612ba1565b9050612f0a6020830185612d0f565b8181036040830152612f1c8184612af3565b9050949350505050565b60006020820190508181036000830152612f3f81612bda565b9050919050565b6000612f50612f61565b9050612f5c828261311f565b919050565b6000604051905090565b600067ffffffffffffffff821115612f8657612f85613226565b5b612f8f82613269565b9050602081019050919050565b6000819050602082019050919050565b6000819050602082019050919050565b600081519050919050565b600081519050919050565b600081519050919050565b6000602082019050919050565b6000602082019050919050565b600082825260208201905092915050565b600082825260208201905092915050565b600082825260208201905092915050565b600082825260208201905092915050565b6000613046826130a1565b9150613051836130a1565b92508282101561306457613063613199565b5b828203905092915050565b600061307a82613081565b9050919050565b600073ffffffffffffffffffffffffffffffffffffffff82169050919050565b6000819050919050565b82818337600083830152505050565b60005b838110156130d85780820151818401526020810190506130bd565b838111156130e7576000848401525b50505050565b6000600282049050600182168061310557607f821691505b60208210811415613119576131186131c8565b5b50919050565b61312882613269565b810181811067ffffffffffffffff8211171561314757613146613226565b5b80604052505050565b600061315b826130a1565b91507fffffffffffffffffffffffffffffffffffffffffffffffffffffffffffffffff82141561318e5761318d613199565b5b600182019050919050565b7f4e487b7100000000000000000000000000000000000000000000000000000000600052601160045260246000fd5b7f4e487b7100000000000000000000000000000000000000000000000000000000600052602260045260246000fd5b7f4e487b7100000000000000000000000000000000000000000000000000000000600052603260045260246000fd5b7f4e487b7100000000000000000000000000000000000000000000000000000000600052604160045260246000fd5b600080fd5b600080fd5b600080fd5b600080fd5b6000601f19601f8301169050919050565b7f596f7520617265206e6f74206120646f63746f72000000000000000000000000600082015250565b6132ac8161306f565b81146132b757600080fd5b50565b6132c3816130a1565b81146132ce57600080fd5b5056fea264697066735822122013f56cd08e3a19cc40ff2d4bfce44a59b897a4151869c28859fcc6548fb6434164736f6c63430008070033",
  "linkReferences": {},
  "deployedLinkReferences": {}
}