{
  "_format": "hh-sol-artifact-1",
  "contractName": "Hospital",
  "sourceName": "contracts/Hospital.sol",
  "abi": [
    {
      "inputs": [
        {
          "internalType": "address",
          "name": "addr",
          "type": "address"
        }
      ],
      "name": "add_Admin",
      "outputs": [],
      "stateMutability": "nonpayable",
      "type": "function"
    },
    {
      "inputs": [
        {
          "internalType": "string",
          "name": "_name",
          "type": "string"
        },
        {
          "internalType": "uint256",
          "name": "_age",
          "type": "uint256"
        },
        {
          "internalType": "uint256",
          "name": "_designation",
          "type": "uint256"
        }
      ],
      "name": "add_agent",
      "outputs": [
        {
          "internalType": "string",
          "name": "",
          "type": "string"
        }
      ],
      "stateMutability": "nonpayable",
      "type": "function"
    },
    {
      "inputs": [
        {
          "internalType": "address",
          "name": "addr",
          "type": "address"
        },
        {
          "internalType": "string",
          "name": "_name",
          "type": "string"
        },
        {
          "internalType": "uint256",
          "name": "_age",
          "type": "uint256"
        },
        {
          "internalType": "string",
          "name": "_medicalLicense",
          "type": "string"
        },
        {
          "internalType": "string",
          "name": "_aboutYou",
          "type": "string"
        },
        {
          "internalType": "string",
          "name": "_eduBackground",
          "type": "string"
        },
        {
          "internalType": "string",
          "name": "_hospitalAddress",
          "type": "string"
        },
        {
          "internalType": "string",
          "name": "_certificates",
          "type": "string"
        }
      ],
      "name": "add_doctor",
      "outputs": [],
      "stateMutability": "nonpayable",
      "type": "function"
    },
    {
      "inputs": [
        {
          "internalType": "address",
          "name": "_patientAddress",
          "type": "address"
        },
        {
          "internalType": "string",
          "name": "_doctorName",
          "type": "string"
        },
        {
          "internalType": "string",
          "name": "_symptoms",
          "type": "string"
        },
        {
          "internalType": "string",
          "name": "_diagnosis",
          "type": "string"
        },
        {
          "internalType": "string",
          "name": "_treatment",
          "type": "string"
        },
        {
          "internalType": "string",
          "name": "_medication",
          "type": "string"
        },
        {
          "internalType": "string",
          "name": "_detail",
          "type": "string"
        },
        {
          "internalType": "string",
          "name": "_report",
          "type": "string"
        },
        {
          "internalType": "string",
          "name": "_bill",
          "type": "string"
        }
      ],
      "name": "add_record",
      "outputs": [],
      "stateMutability": "nonpayable",
      "type": "function"
    },
    {
      "inputs": [
        {
          "internalType": "uint256",
          "name": "",
          "type": "uint256"
        }
      ],
      "name": "admin",
      "outputs": [
        {
          "internalType": "address",
          "name": "",
          "type": "address"
        }
      ],
      "stateMutability": "view",
      "type": "function"
    },
    {
      "inputs": [
        {
          "internalType": "uint256",
          "name": "",
          "type": "uint256"
        }
      ],
      "name": "doctorList",
      "outputs": [
        {
          "internalType": "address",
          "name": "",
          "type": "address"
        }
      ],
      "stateMutability": "view",
      "type": "function"
    },
    {
      "inputs": [
        {
          "internalType": "address",
          "name": "addr",
          "type": "address"
        }
      ],
      "name": "get_My_Patients",
      "outputs": [
        {
          "components": [
            {
              "internalType": "address",
              "name": "patientAddress",
              "type": "address"
            },
            {
              "internalType": "string",
              "name": "doctorName",
              "type": "string"
            },
            {
              "internalType": "string",
              "name": "symptoms",
              "type": "string"
            },
            {
              "internalType": "string",
              "name": "diagnosis",
              "type": "string"
            },
            {
              "internalType": "string",
              "name": "treatment",
              "type": "string"
            },
            {
              "internalType": "string",
              "name": "Medication",
              "type": "string"
            },
            {
              "internalType": "string",
              "name": "details",
              "type": "string"
            },
            {
              "internalType": "string",
              "name": "report",
              "type": "string"
            },
            {
              "internalType": "string",
              "name": "bill",
              "type": "string"
            },
            {
              "internalType": "string",
              "name": "state",
              "type": "string"
            }
          ],
          "internalType": "struct Hospital.record[]",
          "name": "",
          "type": "tuple[]"
        }
      ],
      "stateMutability": "view",
      "type": "function"
    },
    {
      "inputs": [
        {
          "internalType": "address",
          "name": "addr",
          "type": "address"
        }
      ],
      "name": "get_Single_doctor",
      "outputs": [
        {
          "internalType": "string",
          "name": "",
          "type": "string"
        },
        {
          "internalType": "uint256",
          "name": "",
          "type": "uint256"
        },
        {
          "internalType": "string",
          "name": "",
          "type": "string"
        },
        {
          "internalType": "string",
          "name": "",
          "type": "string"
        },
        {
          "internalType": "string",
          "name": "",
          "type": "string"
        },
        {
          "internalType": "string",
          "name": "",
          "type": "string"
        },
        {
          "internalType": "string",
          "name": "",
          "type": "string"
        }
      ],
      "stateMutability": "view",
      "type": "function"
    },
    {
      "inputs": [
        {
          "internalType": "address",
          "name": "addr",
          "type": "address"
        }
      ],
      "name": "get_Single_patient",
      "outputs": [
        {
          "internalType": "string",
          "name": "",
          "type": "string"
        },
        {
          "internalType": "uint256",
          "name": "",
          "type": "uint256"
        },
        {
          "components": [
            {
              "internalType": "address",
              "name": "patientAddress",
              "type": "address"
            },
            {
              "internalType": "string",
              "name": "doctorName",
              "type": "string"
            },
            {
              "internalType": "string",
              "name": "symptoms",
              "type": "string"
            },
            {
              "internalType": "string",
              "name": "diagnosis",
              "type": "string"
            },
            {
              "internalType": "string",
              "name": "treatment",
              "type": "string"
            },
            {
              "internalType": "string",
              "name": "Medication",
              "type": "string"
            },
            {
              "internalType": "string",
              "name": "details",
              "type": "string"
            },
            {
              "internalType": "string",
              "name": "report",
              "type": "string"
            },
            {
              "internalType": "string",
              "name": "bill",
              "type": "string"
            },
            {
              "internalType": "string",
              "name": "state",
              "type": "string"
            }
          ],
          "internalType": "struct Hospital.record[]",
          "name": "",
          "type": "tuple[]"
        }
      ],
      "stateMutability": "view",
      "type": "function"
    },
    {
      "inputs": [
        {
          "internalType": "address",
          "name": "addr",
          "type": "address"
        }
      ],
      "name": "get_accessed_doctorlist_for_patient",
      "outputs": [
        {
          "internalType": "address[]",
          "name": "",
          "type": "address[]"
        }
      ],
      "stateMutability": "view",
      "type": "function"
    },
    {
      "inputs": [],
      "name": "get_doctor_list",
      "outputs": [
        {
          "internalType": "address[]",
          "name": "",
          "type": "address[]"
        }
      ],
      "stateMutability": "view",
      "type": "function"
    },
    {
      "inputs": [
        {
          "internalType": "address",
          "name": "paddr",
          "type": "address"
        },
        {
          "internalType": "address",
          "name": "daddr",
          "type": "address"
        }
      ],
      "name": "get_patient_doctor_name",
      "outputs": [
        {
          "internalType": "string",
          "name": "",
          "type": "string"
        },
        {
          "internalType": "string",
          "name": "",
          "type": "string"
        }
      ],
      "stateMutability": "view",
      "type": "function"
    },
    {
      "inputs": [],
      "name": "get_patient_list",
      "outputs": [
        {
          "internalType": "address[]",
          "name": "",
          "type": "address[]"
        }
      ],
      "stateMutability": "view",
      "type": "function"
    },
    {
      "inputs": [
        {
          "internalType": "uint256",
          "name": "",
          "type": "uint256"
        }
      ],
      "name": "patientList",
      "outputs": [
        {
          "internalType": "address",
          "name": "",
          "type": "address"
        }
      ],
      "stateMutability": "view",
      "type": "function"
    },
    {
      "inputs": [
        {
          "internalType": "address",
          "name": "addr",
          "type": "address"
        }
      ],
      "name": "permit_access",
      "outputs": [],
      "stateMutability": "nonpayable",
      "type": "function"
    },
    {
      "inputs": [
        {
          "internalType": "uint256",
          "name": "",
          "type": "uint256"
        }
      ],
      "name": "recordList",
      "outputs": [
        {
          "internalType": "address",
          "name": "patientAddress",
          "type": "address"
        },
        {
          "internalType": "string",
          "name": "doctorName",
          "type": "string"
        },
        {
          "internalType": "string",
          "name": "symptoms",
          "type": "string"
        },
        {
          "internalType": "string",
          "name": "diagnosis",
          "type": "string"
        },
        {
          "internalType": "string",
          "name": "treatment",
          "type": "string"
        },
        {
          "internalType": "string",
          "name": "Medication",
          "type": "string"
        },
        {
          "internalType": "string",
          "name": "details",
          "type": "string"
        },
        {
          "internalType": "string",
          "name": "report",
          "type": "string"
        },
        {
          "internalType": "string",
          "name": "bill",
          "type": "string"
        },
        {
          "internalType": "string",
          "name": "state",
          "type": "string"
        }
      ],
      "stateMutability": "view",
      "type": "function"
    },
    {
      "inputs": [
        {
          "internalType": "address",
          "name": "paddr",
          "type": "address"
        },
        {
          "internalType": "address",
          "name": "daddr",
          "type": "address"
        }
      ],
      "name": "remove_patient",
      "outputs": [],
      "stateMutability": "nonpayable",
      "type": "function"
    },
    {
      "inputs": [
        {
          "internalType": "address",
          "name": "daddr",
          "type": "address"
        }
      ],
      "name": "revoke_access",
      "outputs": [],
      "stateMutability": "nonpayable",
      "type": "function"
    }
  ],
  "bytecode": "0x608060405234801561001057600080fd5b50613e2a806100206000396000f3fe608060405234801561001057600080fd5b50600436106101155760003560e01c80637e15ac0a116100a2578063bcffb7ca11610071578063bcffb7ca14610332578063c39e96351461034e578063d599a1c61461036c578063e81ac0541461039c578063ebd14234146103ba57610115565b80637e15ac0a1461029a5780639b2947c1146102b6578063ac4c381a146102d2578063babb1d411461030257610115565b80631c14e7cd116100e95780631c14e7cd146101cf5780631e3fc3b81461020157806327b1dcee14610232578063467267581461024e5780636d9963a11461027e57610115565b80627ee3ce1461011a5780630362fe9b1461014a578063127ca4b41461016657806319da83a814610196575b600080fd5b610134600480360381019061012f9190613088565b6103f0565b6040516101419190613885565b60405180910390f35b610164600480360381019061015f91906130b5565b6104c6565b005b610180600480360381019061017b919061346c565b610562565b60405161018d919061378f565b60405180910390f35b6101b060048036038101906101ab919061346c565b6105a1565b6040516101c69a999897969594939291906137aa565b60405180910390f35b6101e960048036038101906101e49190613088565b610aed565b6040516101f893929190613922565b60405180910390f35b61021b600480360381019061021691906130b5565b611225565b6040516102299291906138eb565b60405180910390f35b61024c60048036038101906102479190613088565b6113cf565b005b610268600480360381019061026391906133fd565b6113dc565b60405161027591906138c9565b60405180910390f35b61029860048036038101906102939190613088565b611615565b005b6102b460048036038101906102af91906130f5565b61175c565b005b6102d060048036038101906102cb919061329f565b611c52565b005b6102ec60048036038101906102e79190613088565b611f10565b6040516102f991906138a7565b60405180910390f35b61031c6004803603810190610317919061346c565b61252a565b604051610329919061378f565b60405180910390f35b61034c60048036038101906103479190613088565b612569565b005b6103566126b2565b6040516103639190613885565b60405180910390f35b6103866004803603810190610381919061346c565b612740565b604051610393919061378f565b60405180910390f35b6103a461277f565b6040516103b19190613885565b60405180910390f35b6103d460048036038101906103cf9190613088565b61280d565b6040516103e79796959493929190613967565b60405180910390f35b60606000600460008473ffffffffffffffffffffffffffffffffffffffff1673ffffffffffffffffffffffffffffffffffffffff1681526020019081526020016000206002019050808054806020026020016040519081016040528092919081815260200182805480156104b957602002820191906000526020600020905b8160009054906101000a900473ffffffffffffffffffffffffffffffffffffffff1673ffffffffffffffffffffffffffffffffffffffff168152602001906001019080831161046f575b5050505050915050919050565b610511600560008373ffffffffffffffffffffffffffffffffffffffff1673ffffffffffffffffffffffffffffffffffffffff16815260200190815260200160002060070183612d49565b5061055d600460008473ffffffffffffffffffffffffffffffffffffffff1673ffffffffffffffffffffffffffffffffffffffff16815260200190815260200160002060020182612d49565b505050565b6002818154811061057257600080fd5b906000526020600020016000915054906101000a900473ffffffffffffffffffffffffffffffffffffffff1681565b600381815481106105b157600080fd5b90600052602060002090600a02016000915090508060000160009054906101000a900473ffffffffffffffffffffffffffffffffffffffff16908060010180546105fa90613be7565b80601f016020809104026020016040519081016040528092919081815260200182805461062690613be7565b80156106735780601f1061064857610100808354040283529160200191610673565b820191906000526020600020905b81548152906001019060200180831161065657829003601f168201915b50505050509080600201805461068890613be7565b80601f01602080910402602001604051908101604052809291908181526020018280546106b490613be7565b80156107015780601f106106d657610100808354040283529160200191610701565b820191906000526020600020905b8154815290600101906020018083116106e457829003601f168201915b50505050509080600301805461071690613be7565b80601f016020809104026020016040519081016040528092919081815260200182805461074290613be7565b801561078f5780601f106107645761010080835404028352916020019161078f565b820191906000526020600020905b81548152906001019060200180831161077257829003601f168201915b5050505050908060040180546107a490613be7565b80601f01602080910402602001604051908101604052809291908181526020018280546107d090613be7565b801561081d5780601f106107f25761010080835404028352916020019161081d565b820191906000526020600020905b81548152906001019060200180831161080057829003601f168201915b50505050509080600501805461083290613be7565b80601f016020809104026020016040519081016040528092919081815260200182805461085e90613be7565b80156108ab5780601f10610880576101008083540402835291602001916108ab565b820191906000526020600020905b81548152906001019060200180831161088e57829003601f168201915b5050505050908060060180546108c090613be7565b80601f01602080910402602001604051908101604052809291908181526020018280546108ec90613be7565b80156109395780601f1061090e57610100808354040283529160200191610939565b820191906000526020600020905b81548152906001019060200180831161091c57829003601f168201915b50505050509080600701805461094e90613be7565b80601f016020809104026020016040519081016040528092919081815260200182805461097a90613be7565b80156109c75780601f1061099c576101008083540402835291602001916109c7565b820191906000526020600020905b8154815290600101906020018083116109aa57829003601f168201915b5050505050908060080180546109dc90613be7565b80601f0160208091040260200160405190810160405280929190818152602001828054610a0890613be7565b8015610a555780601f10610a2a57610100808354040283529160200191610a55565b820191906000526020600020905b815481529060010190602001808311610a3857829003601f168201915b505050505090806009018054610a6a90613be7565b80601f0160208091040260200160405190810160405280929190818152602001828054610a9690613be7565b8015610ae35780601f10610ab857610100808354040283529160200191610ae3565b820191906000526020600020905b815481529060010190602001808311610ac657829003601f168201915b505050505090508a565b606060006060600460008573ffffffffffffffffffffffffffffffffffffffff1673ffffffffffffffffffffffffffffffffffffffff168152602001908152602001600020600001600460008673ffffffffffffffffffffffffffffffffffffffff1673ffffffffffffffffffffffffffffffffffffffff16815260200190815260200160002060010154600460008773ffffffffffffffffffffffffffffffffffffffff1673ffffffffffffffffffffffffffffffffffffffff168152602001908152602001600020600301828054610bc690613be7565b80601f0160208091040260200160405190810160405280929190818152602001828054610bf290613be7565b8015610c3f5780601f10610c1457610100808354040283529160200191610c3f565b820191906000526020600020905b815481529060010190602001808311610c2257829003601f168201915b5050505050925080805480602002602001604051908101604052809291908181526020016000905b8282101561121257838290600052602060002090600a0201604051806101400160405290816000820160009054906101000a900473ffffffffffffffffffffffffffffffffffffffff1673ffffffffffffffffffffffffffffffffffffffff1673ffffffffffffffffffffffffffffffffffffffff168152602001600182018054610cf190613be7565b80601f0160208091040260200160405190810160405280929190818152602001828054610d1d90613be7565b8015610d6a5780601f10610d3f57610100808354040283529160200191610d6a565b820191906000526020600020905b815481529060010190602001808311610d4d57829003601f168201915b50505050508152602001600282018054610d8390613be7565b80601f0160208091040260200160405190810160405280929190818152602001828054610daf90613be7565b8015610dfc5780601f10610dd157610100808354040283529160200191610dfc565b820191906000526020600020905b815481529060010190602001808311610ddf57829003601f168201915b50505050508152602001600382018054610e1590613be7565b80601f0160208091040260200160405190810160405280929190818152602001828054610e4190613be7565b8015610e8e5780601f10610e6357610100808354040283529160200191610e8e565b820191906000526020600020905b815481529060010190602001808311610e7157829003601f168201915b50505050508152602001600482018054610ea790613be7565b80601f0160208091040260200160405190810160405280929190818152602001828054610ed390613be7565b8015610f205780601f10610ef557610100808354040283529160200191610f20565b820191906000526020600020905b815481529060010190602001808311610f0357829003601f168201915b50505050508152602001600582018054610f3990613be7565b80601f0160208091040260200160405190810160405280929190818152602001828054610f6590613be7565b8015610fb25780601f10610f8757610100808354040283529160200191610fb2565b820191906000526020600020905b815481529060010190602001808311610f9557829003601f168201915b50505050508152602001600682018054610fcb90613be7565b80601f0160208091040260200160405190810160405280929190818152602001828054610ff790613be7565b80156110445780601f1061101957610100808354040283529160200191611044565b820191906000526020600020905b81548152906001019060200180831161102757829003601f168201915b5050505050815260200160078201805461105d90613be7565b80601f016020809104026020016040519081016040528092919081815260200182805461108990613be7565b80156110d65780601f106110ab576101008083540402835291602001916110d6565b820191906000526020600020905b8154815290600101906020018083116110b957829003601f168201915b505050505081526020016008820180546110ef90613be7565b80601f016020809104026020016040519081016040528092919081815260200182805461111b90613be7565b80156111685780601f1061113d57610100808354040283529160200191611168565b820191906000526020600020905b81548152906001019060200180831161114b57829003601f168201915b5050505050815260200160098201805461118190613be7565b80601f01602080910402602001604051908101604052809291908181526020018280546111ad90613be7565b80156111fa5780601f106111cf576101008083540402835291602001916111fa565b820191906000526020600020905b8154815290600101906020018083116111dd57829003601f168201915b50505050508152505081526020019060010190610c67565b5050505090509250925092509193909250565b606080600460008573ffffffffffffffffffffffffffffffffffffffff1673ffffffffffffffffffffffffffffffffffffffff168152602001908152602001600020600001600560008573ffffffffffffffffffffffffffffffffffffffff1673ffffffffffffffffffffffffffffffffffffffff1681526020019081526020016000206000018180546112b890613be7565b80601f01602080910402602001604051908101604052809291908181526020018280546112e490613be7565b80156113315780601f1061130657610100808354040283529160200191611331565b820191906000526020600020905b81548152906001019060200180831161131457829003601f168201915b5050505050915080805461134490613be7565b80601f016020809104026020016040519081016040528092919081815260200182805461137090613be7565b80156113bd5780601f10611392576101008083540402835291602001916113bd565b820191906000526020600020905b8154815290600101906020018083116113a057829003601f168201915b50505050509050915091509250929050565b6113d933826104c6565b50565b6060600033905060008314156114f65784600460003373ffffffffffffffffffffffffffffffffffffffff1673ffffffffffffffffffffffffffffffffffffffff1681526020019081526020016000206000019080519060200190611442929190612f4b565b5083600460003373ffffffffffffffffffffffffffffffffffffffff1673ffffffffffffffffffffffffffffffffffffffff168152602001908152602001600020600101819055506001819080600181540180825580915050600190039060005260206000200160009091909190916101000a81548173ffffffffffffffffffffffffffffffffffffffff021916908373ffffffffffffffffffffffffffffffffffffffff1602179055508491505061160e565b60018314156116095784600560008373ffffffffffffffffffffffffffffffffffffffff1673ffffffffffffffffffffffffffffffffffffffff1681526020019081526020016000206000019080519060200190611555929190612f4b565b5083600560008373ffffffffffffffffffffffffffffffffffffffff1673ffffffffffffffffffffffffffffffffffffffff168152602001908152602001600020600101819055506002819080600181540180825580915050600190039060005260206000200160009091909190916101000a81548173ffffffffffffffffffffffffffffffffffffffff021916908373ffffffffffffffffffffffffffffffffffffffff1602179055508491505061160e565b600080fd5b9392505050565b600080600090505b6000805490508110156116b4578273ffffffffffffffffffffffffffffffffffffffff166000828154811061165557611654613cf1565b5b9060005260206000200160009054906101000a900473ffffffffffffffffffffffffffffffffffffffff1673ffffffffffffffffffffffffffffffffffffffff1614156116a157600191505b80806116ac90613c4a565b91505061161d565b50806116f5576040517f08c379a00000000000000000000000000000000000000000000000000000000081526004016116ec90613a00565b60405180910390fd5b6000829080600181540180825580915050600190039060005260206000200160009091909190916101000a81548173ffffffffffffffffffffffffffffffffffffffff021916908373ffffffffffffffffffffffffffffffffffffffff1602179055505050565b6000805b6002805490508110156117f7573373ffffffffffffffffffffffffffffffffffffffff166002828154811061179857611797613cf1565b5b9060005260206000200160009054906101000a900473ffffffffffffffffffffffffffffffffffffffff1673ffffffffffffffffffffffffffffffffffffffff1614156117e457600191505b80806117ef90613c4a565b915050611760565b5080611838576040517f08c379a000000000000000000000000000000000000000000000000000000000815260040161182f90613a20565b60405180910390fd5b60006040518061014001604052808c73ffffffffffffffffffffffffffffffffffffffff1681526020018b81526020018a81526020018981526020018881526020018781526020018681526020018581526020018481526020016040518060400160405280600381526020017f6e657700000000000000000000000000000000000000000000000000000000008152508152509050600460008c73ffffffffffffffffffffffffffffffffffffffff1673ffffffffffffffffffffffffffffffffffffffff1681526020019081526020016000206003018190806001815401808255809150506001900390600052602060002090600a020160009091909190915060008201518160000160006101000a81548173ffffffffffffffffffffffffffffffffffffffff021916908373ffffffffffffffffffffffffffffffffffffffff160217905550602082015181600101908051906020019061199c929190612f4b565b5060408201518160020190805190602001906119b9929190612f4b565b5060608201518160030190805190602001906119d6929190612f4b565b5060808201518160040190805190602001906119f3929190612f4b565b5060a0820151816005019080519060200190611a10929190612f4b565b5060c0820151816006019080519060200190611a2d929190612f4b565b5060e0820151816007019080519060200190611a4a929190612f4b565b50610100820151816008019080519060200190611a68929190612f4b565b50610120820151816009019080519060200190611a86929190612f4b565b505050600560003373ffffffffffffffffffffffffffffffffffffffff1673ffffffffffffffffffffffffffffffffffffffff1681526020019081526020016000206008018190806001815401808255809150506001900390600052602060002090600a020160009091909190915060008201518160000160006101000a81548173ffffffffffffffffffffffffffffffffffffffff021916908373ffffffffffffffffffffffffffffffffffffffff1602179055506020820151816001019080519060200190611b58929190612f4b565b506040820151816002019080519060200190611b75929190612f4b565b506060820151816003019080519060200190611b92929190612f4b565b506080820151816004019080519060200190611baf929190612f4b565b5060a0820151816005019080519060200190611bcc929190612f4b565b5060c0820151816006019080519060200190611be9929190612f4b565b5060e0820151816007019080519060200190611c06929190612f4b565b50610100820151816008019080519060200190611c24929190612f4b565b50610120820151816009019080519060200190611c42929190612f4b565b5050505050505050505050505050565b86600560008a73ffffffffffffffffffffffffffffffffffffffff1673ffffffffffffffffffffffffffffffffffffffff1681526020019081526020016000206000019080519060200190611ca8929190612f4b565b5085600560008a73ffffffffffffffffffffffffffffffffffffffff1673ffffffffffffffffffffffffffffffffffffffff1681526020019081526020016000206001018190555084600560008a73ffffffffffffffffffffffffffffffffffffffff1673ffffffffffffffffffffffffffffffffffffffff1681526020019081526020016000206002019080519060200190611d46929190612f4b565b5083600560008a73ffffffffffffffffffffffffffffffffffffffff1673ffffffffffffffffffffffffffffffffffffffff1681526020019081526020016000206003019080519060200190611d9d929190612f4b565b5080600560008a73ffffffffffffffffffffffffffffffffffffffff1673ffffffffffffffffffffffffffffffffffffffff1681526020019081526020016000206006019080519060200190611df4929190612f4b565b5082600560008a73ffffffffffffffffffffffffffffffffffffffff1673ffffffffffffffffffffffffffffffffffffffff1681526020019081526020016000206004019080519060200190611e4b929190612f4b565b5081600560008a73ffffffffffffffffffffffffffffffffffffffff1673ffffffffffffffffffffffffffffffffffffffff1681526020019081526020016000206005019080519060200190611ea2929190612f4b565b506002889080600181540180825580915050600190039060005260206000200160009091909190916101000a81548173ffffffffffffffffffffffffffffffffffffffff021916908373ffffffffffffffffffffffffffffffffffffffff1602179055505050505050505050565b6060600560008373ffffffffffffffffffffffffffffffffffffffff1673ffffffffffffffffffffffffffffffffffffffff168152602001908152602001600020600801805480602002602001604051908101604052809291908181526020016000905b8282101561251f57838290600052602060002090600a0201604051806101400160405290816000820160009054906101000a900473ffffffffffffffffffffffffffffffffffffffff1673ffffffffffffffffffffffffffffffffffffffff1673ffffffffffffffffffffffffffffffffffffffff168152602001600182018054611ffe90613be7565b80601f016020809104026020016040519081016040528092919081815260200182805461202a90613be7565b80156120775780601f1061204c57610100808354040283529160200191612077565b820191906000526020600020905b81548152906001019060200180831161205a57829003601f168201915b5050505050815260200160028201805461209090613be7565b80601f01602080910402602001604051908101604052809291908181526020018280546120bc90613be7565b80156121095780601f106120de57610100808354040283529160200191612109565b820191906000526020600020905b8154815290600101906020018083116120ec57829003601f168201915b5050505050815260200160038201805461212290613be7565b80601f016020809104026020016040519081016040528092919081815260200182805461214e90613be7565b801561219b5780601f106121705761010080835404028352916020019161219b565b820191906000526020600020905b81548152906001019060200180831161217e57829003601f168201915b505050505081526020016004820180546121b490613be7565b80601f01602080910402602001604051908101604052809291908181526020018280546121e090613be7565b801561222d5780601f106122025761010080835404028352916020019161222d565b820191906000526020600020905b81548152906001019060200180831161221057829003601f168201915b5050505050815260200160058201805461224690613be7565b80601f016020809104026020016040519081016040528092919081815260200182805461227290613be7565b80156122bf5780601f10612294576101008083540402835291602001916122bf565b820191906000526020600020905b8154815290600101906020018083116122a257829003601f168201915b505050505081526020016006820180546122d890613be7565b80601f016020809104026020016040519081016040528092919081815260200182805461230490613be7565b80156123515780601f1061232657610100808354040283529160200191612351565b820191906000526020600020905b81548152906001019060200180831161233457829003601f168201915b5050505050815260200160078201805461236a90613be7565b80601f016020809104026020016040519081016040528092919081815260200182805461239690613be7565b80156123e35780601f106123b8576101008083540402835291602001916123e3565b820191906000526020600020905b8154815290600101906020018083116123c657829003601f168201915b505050505081526020016008820180546123fc90613be7565b80601f016020809104026020016040519081016040528092919081815260200182805461242890613be7565b80156124755780601f1061244a57610100808354040283529160200191612475565b820191906000526020600020905b81548152906001019060200180831161245857829003601f168201915b5050505050815260200160098201805461248e90613be7565b80601f01602080910402602001604051908101604052809291908181526020018280546124ba90613be7565b80156125075780601f106124dc57610100808354040283529160200191612507565b820191906000526020600020905b8154815290600101906020018083116124ea57829003601f168201915b50505050508152505081526020019060010190611f74565b505050509050919050565b6001818154811061253a57600080fd5b906000526020600020016000915054906101000a900473ffffffffffffffffffffffffffffffffffffffff1681565b600560008273ffffffffffffffffffffffffffffffffffffffff1673ffffffffffffffffffffffffffffffffffffffff168152602001908152602001600020600701339080600181540180825580915050600190039060005260206000200160009091909190916101000a81548173ffffffffffffffffffffffffffffffffffffffff021916908373ffffffffffffffffffffffffffffffffffffffff160217905550600460003373ffffffffffffffffffffffffffffffffffffffff1673ffffffffffffffffffffffffffffffffffffffff168152602001908152602001600020600201819080600181540180825580915050600190039060005260206000200160009091909190916101000a81548173ffffffffffffffffffffffffffffffffffffffff021916908373ffffffffffffffffffffffffffffffffffffffff16021790555050565b6060600280548060200260200160405190810160405280929190818152602001828054801561273657602002820191906000526020600020905b8160009054906101000a900473ffffffffffffffffffffffffffffffffffffffff1673ffffffffffffffffffffffffffffffffffffffff16815260200190600101908083116126ec575b5050505050905090565b6000818154811061275057600080fd5b906000526020600020016000915054906101000a900473ffffffffffffffffffffffffffffffffffffffff1681565b6060600180548060200260200160405190810160405280929190818152602001828054801561280357602002820191906000526020600020905b8160009054906101000a900473ffffffffffffffffffffffffffffffffffffffff1673ffffffffffffffffffffffffffffffffffffffff16815260200190600101908083116127b9575b5050505050905090565b606060006060806060806060600560008973ffffffffffffffffffffffffffffffffffffffff1673ffffffffffffffffffffffffffffffffffffffff168152602001908152602001600020600001600560008a73ffffffffffffffffffffffffffffffffffffffff1673ffffffffffffffffffffffffffffffffffffffff16815260200190815260200160002060010154600560008b73ffffffffffffffffffffffffffffffffffffffff1673ffffffffffffffffffffffffffffffffffffffff168152602001908152602001600020600201600560008c73ffffffffffffffffffffffffffffffffffffffff1673ffffffffffffffffffffffffffffffffffffffff168152602001908152602001600020600301600560008d73ffffffffffffffffffffffffffffffffffffffff1673ffffffffffffffffffffffffffffffffffffffff168152602001908152602001600020600401600560008e73ffffffffffffffffffffffffffffffffffffffff1673ffffffffffffffffffffffffffffffffffffffff168152602001908152602001600020600501600560008f73ffffffffffffffffffffffffffffffffffffffff1673ffffffffffffffffffffffffffffffffffffffff1681526020019081526020016000206006018680546129f490613be7565b80601f0160208091040260200160405190810160405280929190818152602001828054612a2090613be7565b8015612a6d5780601f10612a4257610100808354040283529160200191612a6d565b820191906000526020600020905b815481529060010190602001808311612a5057829003601f168201915b50505050509650848054612a8090613be7565b80601f0160208091040260200160405190810160405280929190818152602001828054612aac90613be7565b8015612af95780601f10612ace57610100808354040283529160200191612af9565b820191906000526020600020905b815481529060010190602001808311612adc57829003601f168201915b50505050509450838054612b0c90613be7565b80601f0160208091040260200160405190810160405280929190818152602001828054612b3890613be7565b8015612b855780601f10612b5a57610100808354040283529160200191612b85565b820191906000526020600020905b815481529060010190602001808311612b6857829003601f168201915b50505050509350828054612b9890613be7565b80601f0160208091040260200160405190810160405280929190818152602001828054612bc490613be7565b8015612c115780601f10612be657610100808354040283529160200191612c11565b820191906000526020600020905b815481529060010190602001808311612bf457829003601f168201915b50505050509250818054612c2490613be7565b80601f0160208091040260200160405190810160405280929190818152602001828054612c5090613be7565b8015612c9d5780601f10612c7257610100808354040283529160200191612c9d565b820191906000526020600020905b815481529060010190602001808311612c8057829003601f168201915b50505050509150808054612cb090613be7565b80601f0160208091040260200160405190810160405280929190818152602001828054612cdc90613be7565b8015612d295780601f10612cfe57610100808354040283529160200191612d29565b820191906000526020600020905b815481529060010190602001808311612d0c57829003601f168201915b505050505090509650965096509650965096509650919395979092949650565b600080600090506000805b8580549050811015612dec578473ffffffffffffffffffffffffffffffffffffffff16868281548110612d8a57612d89613cf1565b5b9060005260206000200160009054906101000a900473ffffffffffffffffffffffffffffffffffffffff1673ffffffffffffffffffffffffffffffffffffffff161415612dd957600192508091505b8080612de490613c4a565b915050612d54565b5081612df757600080fd5b600185805490501415612e4957848181548110612e1757612e16613cf1565b5b9060005260206000200160006101000a81549073ffffffffffffffffffffffffffffffffffffffff0219169055612f43565b8460018680549050612e5b9190613b35565b81548110612e6c57612e6b613cf1565b5b9060005260206000200160009054906101000a900473ffffffffffffffffffffffffffffffffffffffff16858281548110612eaa57612ea9613cf1565b5b9060005260206000200160006101000a81548173ffffffffffffffffffffffffffffffffffffffff021916908373ffffffffffffffffffffffffffffffffffffffff1602179055508460018680549050612f049190613b35565b81548110612f1557612f14613cf1565b5b9060005260206000200160006101000a81549073ffffffffffffffffffffffffffffffffffffffff02191690555b505092915050565b828054612f5790613be7565b90600052602060002090601f016020900481019282612f795760008555612fc0565b82601f10612f9257805160ff1916838001178555612fc0565b82800160010185558215612fc0579182015b82811115612fbf578251825591602001919060010190612fa4565b5b509050612fcd9190612fd1565b5090565b5b80821115612fea576000816000905550600101612fd2565b5090565b6000613001612ffc84613a65565b613a40565b90508281526020810184848401111561301d5761301c613d54565b5b613028848285613ba5565b509392505050565b60008135905061303f81613dc6565b92915050565b600082601f83011261305a57613059613d4f565b5b813561306a848260208601612fee565b91505092915050565b60008135905061308281613ddd565b92915050565b60006020828403121561309e5761309d613d5e565b5b60006130ac84828501613030565b91505092915050565b600080604083850312156130cc576130cb613d5e565b5b60006130da85828601613030565b92505060206130eb85828601613030565b9150509250929050565b60008060008060008060008060006101208a8c03121561311857613117613d5e565b5b60006131268c828d01613030565b99505060208a013567ffffffffffffffff81111561314757613146613d59565b5b6131538c828d01613045565b98505060408a013567ffffffffffffffff81111561317457613173613d59565b5b6131808c828d01613045565b97505060608a013567ffffffffffffffff8111156131a1576131a0613d59565b5b6131ad8c828d01613045565b96505060808a013567ffffffffffffffff8111156131ce576131cd613d59565b5b6131da8c828d01613045565b95505060a08a013567ffffffffffffffff8111156131fb576131fa613d59565b5b6132078c828d01613045565b94505060c08a013567ffffffffffffffff81111561322857613227613d59565b5b6132348c828d01613045565b93505060e08a013567ffffffffffffffff81111561325557613254613d59565b5b6132618c828d01613045565b9250506101008a013567ffffffffffffffff81111561328357613282613d59565b5b61328f8c828d01613045565b9150509295985092959850929598565b600080600080600080600080610100898b0312156132c0576132bf613d5e565b5b60006132ce8b828c01613030565b985050602089013567ffffffffffffffff8111156132ef576132ee613d59565b5b6132fb8b828c01613045565b975050604061330c8b828c01613073565b965050606089013567ffffffffffffffff81111561332d5761332c613d59565b5b6133398b828c01613045565b955050608089013567ffffffffffffffff81111561335a57613359613d59565b5b6133668b828c01613045565b94505060a089013567ffffffffffffffff81111561338757613386613d59565b5b6133938b828c01613045565b93505060c089013567ffffffffffffffff8111156133b4576133b3613d59565b5b6133c08b828c01613045565b92505060e089013567ffffffffffffffff8111156133e1576133e0613d59565b5b6133ed8b828c01613045565b9150509295985092959890939650565b60008060006060848603121561341657613415613d5e565b5b600084013567ffffffffffffffff81111561343457613433613d59565b5b61344086828701613045565b935050602061345186828701613073565b925050604061346286828701613073565b9150509250925092565b60006020828403121561348257613481613d5e565b5b600061349084828501613073565b91505092915050565b60006134a583836134c5565b60208301905092915050565b60006134bd838361366e565b905092915050565b6134ce81613b69565b82525050565b6134dd81613b69565b82525050565b60006134ee82613ab6565b6134f88185613af1565b935061350383613a96565b8060005b8381101561353457815161351b8882613499565b975061352683613ad7565b925050600181019050613507565b5085935050505092915050565b600061354c82613ac1565b6135568185613b02565b93508360208202850161356885613aa6565b8060005b858110156135a4578484038952815161358585826134b1565b945061359083613ae4565b925060208a0199505060018101905061356c565b50829750879550505050505092915050565b60006135c182613acc565b6135cb8185613b13565b93506135db818560208601613bb4565b6135e481613d63565b840191505092915050565b60006135fa82613acc565b6136048185613b24565b9350613614818560208601613bb4565b61361d81613d63565b840191505092915050565b6000613635601483613b24565b915061364082613d74565b602082019050919050565b6000613658601483613b24565b915061366382613d9d565b602082019050919050565b60006101408301600083015161368760008601826134c5565b506020830151848203602086015261369f82826135b6565b915050604083015184820360408601526136b982826135b6565b915050606083015184820360608601526136d382826135b6565b915050608083015184820360808601526136ed82826135b6565b91505060a083015184820360a086015261370782826135b6565b91505060c083015184820360c086015261372182826135b6565b91505060e083015184820360e086015261373b82826135b6565b91505061010083015184820361010086015261375782826135b6565b91505061012083015184820361012086015261377382826135b6565b9150508091505092915050565b61378981613b9b565b82525050565b60006020820190506137a460008301846134d4565b92915050565b6000610140820190506137c0600083018d6134d4565b81810360208301526137d2818c6135ef565b905081810360408301526137e6818b6135ef565b905081810360608301526137fa818a6135ef565b9050818103608083015261380e81896135ef565b905081810360a083015261382281886135ef565b905081810360c083015261383681876135ef565b905081810360e083015261384a81866135ef565b905081810361010083015261385f81856135ef565b905081810361012083015261387481846135ef565b90509b9a5050505050505050505050565b6000602082019050818103600083015261389f81846134e3565b905092915050565b600060208201905081810360008301526138c18184613541565b905092915050565b600060208201905081810360008301526138e381846135ef565b905092915050565b6000604082019050818103600083015261390581856135ef565b9050818103602083015261391981846135ef565b90509392505050565b6000606082019050818103600083015261393c81866135ef565b905061394b6020830185613780565b818103604083015261395d8184613541565b9050949350505050565b600060e0820190508181036000830152613981818a6135ef565b90506139906020830189613780565b81810360408301526139a281886135ef565b905081810360608301526139b681876135ef565b905081810360808301526139ca81866135ef565b905081810360a08301526139de81856135ef565b905081810360c08301526139f281846135ef565b905098975050505050505050565b60006020820190508181036000830152613a1981613628565b9050919050565b60006020820190508181036000830152613a398161364b565b9050919050565b6000613a4a613a5b565b9050613a568282613c19565b919050565b6000604051905090565b600067ffffffffffffffff821115613a8057613a7f613d20565b5b613a8982613d63565b9050602081019050919050565b6000819050602082019050919050565b6000819050602082019050919050565b600081519050919050565b600081519050919050565b600081519050919050565b6000602082019050919050565b6000602082019050919050565b600082825260208201905092915050565b600082825260208201905092915050565b600082825260208201905092915050565b600082825260208201905092915050565b6000613b4082613b9b565b9150613b4b83613b9b565b925082821015613b5e57613b5d613c93565b5b828203905092915050565b6000613b7482613b7b565b9050919050565b600073ffffffffffffffffffffffffffffffffffffffff82169050919050565b6000819050919050565b82818337600083830152505050565b60005b83811015613bd2578082015181840152602081019050613bb7565b83811115613be1576000848401525b50505050565b60006002820490506001821680613bff57607f821691505b60208210811415613c1357613c12613cc2565b5b50919050565b613c2282613d63565b810181811067ffffffffffffffff82111715613c4157613c40613d20565b5b80604052505050565b6000613c5582613b9b565b91507fffffffffffffffffffffffffffffffffffffffffffffffffffffffffffffffff821415613c8857613c87613c93565b5b600182019050919050565b7f4e487b7100000000000000000000000000000000000000000000000000000000600052601160045260246000fd5b7f4e487b7100000000000000000000000000000000000000000000000000000000600052602260045260246000fd5b7f4e487b7100000000000000000000000000000000000000000000000000000000600052603260045260246000fd5b7f4e487b7100000000000000000000000000000000000000000000000000000000600052604160045260246000fd5b600080fd5b600080fd5b600080fd5b600080fd5b6000601f19601f8301169050919050565b7f796f7520617265206e6f7420616e2061646d696e000000000000000000000000600082015250565b7f596f7520617265206e6f74206120646f63746f72000000000000000000000000600082015250565b613dcf81613b69565b8114613dda57600080fd5b50565b613de681613b9b565b8114613df157600080fd5b5056fea264697066735822122019356436911d4131850a111aeb782066747cbec91f0445b76f94bf579e2d18b564736f6c63430008070033",
  "linkReferences": {},
  "deployedLinkReferences": {}
}