{
  "_format": "hh-sol-artifact-1",
  "contractName": "Hospital",
  "sourceName": "contracts/Hospital.sol",
  "abi": [
    {
      "inputs": [
        {
          "internalType": "address",
          "name": "addr",
          "type": "address"
        }
      ],
      "name": "add_Admin",
      "outputs": [],
      "stateMutability": "nonpayable",
      "type": "function"
    },
    {
      "inputs": [
        {
          "internalType": "string",
          "name": "_name",
          "type": "string"
        },
        {
          "internalType": "uint256",
          "name": "_age",
          "type": "uint256"
        },
        {
          "internalType": "uint256",
          "name": "_designation",
          "type": "uint256"
        }
      ],
      "name": "add_agent",
      "outputs": [
        {
          "internalType": "string",
          "name": "",
          "type": "string"
        }
      ],
      "stateMutability": "nonpayable",
      "type": "function"
    },
    {
      "inputs": [
        {
          "internalType": "address",
          "name": "addr",
          "type": "address"
        },
        {
          "internalType": "string",
          "name": "_name",
          "type": "string"
        },
        {
          "internalType": "uint256",
          "name": "_age",
          "type": "uint256"
        },
        {
          "internalType": "string",
          "name": "_medicalLicense",
          "type": "string"
        },
        {
          "internalType": "string",
          "name": "_aboutYou",
          "type": "string"
        },
        {
          "internalType": "string",
          "name": "_eduBackground",
          "type": "string"
        },
        {
          "internalType": "string",
          "name": "_hospitalAddress",
          "type": "string"
        },
        {
          "internalType": "string",
          "name": "_certificates",
          "type": "string"
        }
      ],
      "name": "add_doctor",
      "outputs": [],
      "stateMutability": "nonpayable",
      "type": "function"
    },
    {
      "inputs": [
        {
          "internalType": "address",
          "name": "_patientAddress",
          "type": "address"
        },
        {
          "internalType": "string",
          "name": "_doctorName",
          "type": "string"
        },
        {
          "internalType": "string",
          "name": "_symptoms",
          "type": "string"
        },
        {
          "internalType": "string",
          "name": "_diagnosis",
          "type": "string"
        },
        {
          "internalType": "string",
          "name": "_treatment",
          "type": "string"
        },
        {
          "internalType": "string",
          "name": "_medication",
          "type": "string"
        },
        {
          "internalType": "string",
          "name": "_detail",
          "type": "string"
        },
        {
          "internalType": "string",
          "name": "_report",
          "type": "string"
        },
        {
          "internalType": "string",
          "name": "_bill",
          "type": "string"
        }
      ],
      "name": "add_record",
      "outputs": [],
      "stateMutability": "nonpayable",
      "type": "function"
    },
    {
      "inputs": [
        {
          "internalType": "uint256",
          "name": "",
          "type": "uint256"
        }
      ],
      "name": "admin",
      "outputs": [
        {
          "internalType": "address",
          "name": "",
          "type": "address"
        }
      ],
      "stateMutability": "view",
      "type": "function"
    },
    {
      "inputs": [
        {
          "internalType": "uint256",
          "name": "",
          "type": "uint256"
        }
      ],
      "name": "doctorList",
      "outputs": [
        {
          "internalType": "address",
          "name": "",
          "type": "address"
        }
      ],
      "stateMutability": "view",
      "type": "function"
    },
    {
      "inputs": [
        {
          "internalType": "address",
          "name": "addr",
          "type": "address"
        }
      ],
      "name": "get_My_Patients",
      "outputs": [
        {
          "components": [
            {
              "internalType": "address",
              "name": "patientAddress",
              "type": "address"
            },
            {
              "internalType": "string",
              "name": "doctorName",
              "type": "string"
            },
            {
              "internalType": "string",
              "name": "symptoms",
              "type": "string"
            },
            {
              "internalType": "string",
              "name": "diagnosis",
              "type": "string"
            },
            {
              "internalType": "string",
              "name": "treatment",
              "type": "string"
            },
            {
              "internalType": "string",
              "name": "Medication",
              "type": "string"
            },
            {
              "internalType": "string",
              "name": "details",
              "type": "string"
            },
            {
              "internalType": "string",
              "name": "report",
              "type": "string"
            },
            {
              "internalType": "string",
              "name": "bill",
              "type": "string"
            },
            {
              "internalType": "string",
              "name": "state",
              "type": "string"
            }
          ],
          "internalType": "struct Hospital.record[]",
          "name": "",
          "type": "tuple[]"
        }
      ],
      "stateMutability": "view",
      "type": "function"
    },
    {
      "inputs": [
        {
          "internalType": "address",
          "name": "addr",
          "type": "address"
        }
      ],
      "name": "get_Single_doctor",
      "outputs": [
        {
          "internalType": "string",
          "name": "",
          "type": "string"
        },
        {
          "internalType": "uint256",
          "name": "",
          "type": "uint256"
        },
        {
          "internalType": "string",
          "name": "",
          "type": "string"
        },
        {
          "internalType": "string",
          "name": "",
          "type": "string"
        },
        {
          "internalType": "string",
          "name": "",
          "type": "string"
        },
        {
          "internalType": "string",
          "name": "",
          "type": "string"
        },
        {
          "internalType": "string",
          "name": "",
          "type": "string"
        }
      ],
      "stateMutability": "view",
      "type": "function"
    },
    {
      "inputs": [
        {
          "internalType": "address",
          "name": "addr",
          "type": "address"
        }
      ],
      "name": "get_Single_patient",
      "outputs": [
        {
          "internalType": "string",
          "name": "",
          "type": "string"
        },
        {
          "internalType": "uint256",
          "name": "",
          "type": "uint256"
        },
        {
          "components": [
            {
              "internalType": "address",
              "name": "patientAddress",
              "type": "address"
            },
            {
              "internalType": "string",
              "name": "doctorName",
              "type": "string"
            },
            {
              "internalType": "string",
              "name": "symptoms",
              "type": "string"
            },
            {
              "internalType": "string",
              "name": "diagnosis",
              "type": "string"
            },
            {
              "internalType": "string",
              "name": "treatment",
              "type": "string"
            },
            {
              "internalType": "string",
              "name": "Medication",
              "type": "string"
            },
            {
              "internalType": "string",
              "name": "details",
              "type": "string"
            },
            {
              "internalType": "string",
              "name": "report",
              "type": "string"
            },
            {
              "internalType": "string",
              "name": "bill",
              "type": "string"
            },
            {
              "internalType": "string",
              "name": "state",
              "type": "string"
            }
          ],
          "internalType": "struct Hospital.record[]",
          "name": "",
          "type": "tuple[]"
        }
      ],
      "stateMutability": "view",
      "type": "function"
    },
    {
      "inputs": [
        {
          "internalType": "address",
          "name": "addr",
          "type": "address"
        }
      ],
      "name": "get_accessed_doctorlist_for_patient",
      "outputs": [
        {
          "internalType": "address[]",
          "name": "",
          "type": "address[]"
        }
      ],
      "stateMutability": "view",
      "type": "function"
    },
    {
      "inputs": [],
      "name": "get_admin_list",
      "outputs": [
        {
          "internalType": "address[]",
          "name": "",
          "type": "address[]"
        }
      ],
      "stateMutability": "view",
      "type": "function"
    },
    {
      "inputs": [],
      "name": "get_doctor_list",
      "outputs": [
        {
          "internalType": "address[]",
          "name": "",
          "type": "address[]"
        }
      ],
      "stateMutability": "view",
      "type": "function"
    },
    {
      "inputs": [
        {
          "internalType": "address",
          "name": "paddr",
          "type": "address"
        },
        {
          "internalType": "address",
          "name": "daddr",
          "type": "address"
        }
      ],
      "name": "get_patient_doctor_name",
      "outputs": [
        {
          "internalType": "string",
          "name": "",
          "type": "string"
        },
        {
          "internalType": "string",
          "name": "",
          "type": "string"
        }
      ],
      "stateMutability": "view",
      "type": "function"
    },
    {
      "inputs": [],
      "name": "get_patient_list",
      "outputs": [
        {
          "internalType": "address[]",
          "name": "",
          "type": "address[]"
        }
      ],
      "stateMutability": "view",
      "type": "function"
    },
    {
      "inputs": [
        {
          "internalType": "uint256",
          "name": "",
          "type": "uint256"
        }
      ],
      "name": "patientList",
      "outputs": [
        {
          "internalType": "address",
          "name": "",
          "type": "address"
        }
      ],
      "stateMutability": "view",
      "type": "function"
    },
    {
      "inputs": [
        {
          "internalType": "address",
          "name": "addr",
          "type": "address"
        }
      ],
      "name": "permit_access",
      "outputs": [],
      "stateMutability": "nonpayable",
      "type": "function"
    },
    {
      "inputs": [
        {
          "internalType": "uint256",
          "name": "",
          "type": "uint256"
        }
      ],
      "name": "recordList",
      "outputs": [
        {
          "internalType": "address",
          "name": "patientAddress",
          "type": "address"
        },
        {
          "internalType": "string",
          "name": "doctorName",
          "type": "string"
        },
        {
          "internalType": "string",
          "name": "symptoms",
          "type": "string"
        },
        {
          "internalType": "string",
          "name": "diagnosis",
          "type": "string"
        },
        {
          "internalType": "string",
          "name": "treatment",
          "type": "string"
        },
        {
          "internalType": "string",
          "name": "Medication",
          "type": "string"
        },
        {
          "internalType": "string",
          "name": "details",
          "type": "string"
        },
        {
          "internalType": "string",
          "name": "report",
          "type": "string"
        },
        {
          "internalType": "string",
          "name": "bill",
          "type": "string"
        },
        {
          "internalType": "string",
          "name": "state",
          "type": "string"
        }
      ],
      "stateMutability": "view",
      "type": "function"
    },
    {
      "inputs": [
        {
          "internalType": "address",
          "name": "paddr",
          "type": "address"
        },
        {
          "internalType": "address",
          "name": "daddr",
          "type": "address"
        }
      ],
      "name": "remove_patient",
      "outputs": [],
      "stateMutability": "nonpayable",
      "type": "function"
    },
    {
      "inputs": [
        {
          "internalType": "address",
          "name": "daddr",
          "type": "address"
        }
      ],
      "name": "revoke_access",
      "outputs": [],
      "stateMutability": "nonpayable",
      "type": "function"
    }
  ],
  "bytecode": "0x60806040526040518060200160405280734ef1dbc2f04ebedd954ff762b5d23b9040916f5673ffffffffffffffffffffffffffffffffffffffff1673ffffffffffffffffffffffffffffffffffffffff168152506000906001620000659291906200007a565b503480156200007357600080fd5b5062000128565b828054828255906000526020600020908101928215620000f6579160200282015b82811115620000f55782518260006101000a81548173ffffffffffffffffffffffffffffffffffffffff021916908373ffffffffffffffffffffffffffffffffffffffff160217905550916020019190600101906200009b565b5b50905062000105919062000109565b5090565b5b80821115620001245760008160009055506001016200010a565b5090565b613ed880620001386000396000f3fe608060405234801561001057600080fd5b50600436106101205760003560e01c80636d9963a1116100ad578063bcffb7ca11610071578063bcffb7ca1461035b578063c39e963514610377578063d599a1c614610395578063e81ac054146103c5578063ebd14234146103e357610120565b80636d9963a1146102a75780637e15ac0a146102c35780639b2947c1146102df578063ac4c381a146102fb578063babb1d411461032b57610120565b806319da83a8116100f457806319da83a8146101bf5780631c14e7cd146101f85780631e3fc3b81461022a57806327b1dcee1461025b578063467267581461027757610120565b80627ee3ce146101255780630362fe9b14610155578063127ca4b41461017157806312ebca9c146101a1575b600080fd5b61013f600480360381019061013a9190613136565b610419565b60405161014c9190613933565b60405180910390f35b61016f600480360381019061016a9190613163565b6104ef565b005b61018b6004803603810190610186919061351a565b610589565b604051610198919061383d565b60405180910390f35b6101a96105c8565b6040516101b69190613933565b60405180910390f35b6101d960048036038101906101d4919061351a565b610656565b6040516101ef9a99989796959493929190613858565b60405180910390f35b610212600480360381019061020d9190613136565b610ba2565b604051610221939291906139d0565b60405180910390f35b610244600480360381019061023f9190613163565b6112da565b604051610252929190613999565b60405180910390f35b61027560048036038101906102709190613136565b611484565b005b610291600480360381019061028c91906134ab565b611491565b60405161029e9190613977565b60405180910390f35b6102c160048036038101906102bc9190613136565b6116ca565b005b6102dd60048036038101906102d891906131a3565b611811565b005b6102f960048036038101906102f4919061334d565b611d07565b005b61031560048036038101906103109190613136565b611fc5565b6040516103229190613955565b60405180910390f35b6103456004803603810190610340919061351a565b6125df565b604051610352919061383d565b60405180910390f35b61037560048036038101906103709190613136565b61261e565b005b61037f612767565b60405161038c9190613933565b60405180910390f35b6103af60048036038101906103aa919061351a565b6127f5565b6040516103bc919061383d565b60405180910390f35b6103cd612834565b6040516103da9190613933565b60405180910390f35b6103fd60048036038101906103f89190613136565b6128c2565b6040516104109796959493929190613a15565b60405180910390f35b60606000600460008473ffffffffffffffffffffffffffffffffffffffff1673ffffffffffffffffffffffffffffffffffffffff1681526020019081526020016000206002019050808054806020026020016040519081016040528092919081815260200182805480156104e257602002820191906000526020600020905b8160009054906101000a900473ffffffffffffffffffffffffffffffffffffffff1673ffffffffffffffffffffffffffffffffffffffff1681526020019060010190808311610498575b5050505050915050919050565b61053a600560008373ffffffffffffffffffffffffffffffffffffffff1673ffffffffffffffffffffffffffffffffffffffff16815260200190815260200160002060070183612dfe565b610585600460008473ffffffffffffffffffffffffffffffffffffffff1673ffffffffffffffffffffffffffffffffffffffff16815260200190815260200160002060020182612dfe565b5050565b6002818154811061059957600080fd5b906000526020600020016000915054906101000a900473ffffffffffffffffffffffffffffffffffffffff1681565b6060600080548060200260200160405190810160405280929190818152602001828054801561064c57602002820191906000526020600020905b8160009054906101000a900473ffffffffffffffffffffffffffffffffffffffff1673ffffffffffffffffffffffffffffffffffffffff1681526020019060010190808311610602575b5050505050905090565b6003818154811061066657600080fd5b90600052602060002090600a02016000915090508060000160009054906101000a900473ffffffffffffffffffffffffffffffffffffffff16908060010180546106af90613c95565b80601f01602080910402602001604051908101604052809291908181526020018280546106db90613c95565b80156107285780601f106106fd57610100808354040283529160200191610728565b820191906000526020600020905b81548152906001019060200180831161070b57829003601f168201915b50505050509080600201805461073d90613c95565b80601f016020809104026020016040519081016040528092919081815260200182805461076990613c95565b80156107b65780601f1061078b576101008083540402835291602001916107b6565b820191906000526020600020905b81548152906001019060200180831161079957829003601f168201915b5050505050908060030180546107cb90613c95565b80601f01602080910402602001604051908101604052809291908181526020018280546107f790613c95565b80156108445780601f1061081957610100808354040283529160200191610844565b820191906000526020600020905b81548152906001019060200180831161082757829003601f168201915b50505050509080600401805461085990613c95565b80601f016020809104026020016040519081016040528092919081815260200182805461088590613c95565b80156108d25780601f106108a7576101008083540402835291602001916108d2565b820191906000526020600020905b8154815290600101906020018083116108b557829003601f168201915b5050505050908060050180546108e790613c95565b80601f016020809104026020016040519081016040528092919081815260200182805461091390613c95565b80156109605780601f1061093557610100808354040283529160200191610960565b820191906000526020600020905b81548152906001019060200180831161094357829003601f168201915b50505050509080600601805461097590613c95565b80601f01602080910402602001604051908101604052809291908181526020018280546109a190613c95565b80156109ee5780601f106109c3576101008083540402835291602001916109ee565b820191906000526020600020905b8154815290600101906020018083116109d157829003601f168201915b505050505090806007018054610a0390613c95565b80601f0160208091040260200160405190810160405280929190818152602001828054610a2f90613c95565b8015610a7c5780601f10610a5157610100808354040283529160200191610a7c565b820191906000526020600020905b815481529060010190602001808311610a5f57829003601f168201915b505050505090806008018054610a9190613c95565b80601f0160208091040260200160405190810160405280929190818152602001828054610abd90613c95565b8015610b0a5780601f10610adf57610100808354040283529160200191610b0a565b820191906000526020600020905b815481529060010190602001808311610aed57829003601f168201915b505050505090806009018054610b1f90613c95565b80601f0160208091040260200160405190810160405280929190818152602001828054610b4b90613c95565b8015610b985780601f10610b6d57610100808354040283529160200191610b98565b820191906000526020600020905b815481529060010190602001808311610b7b57829003601f168201915b505050505090508a565b606060006060600460008573ffffffffffffffffffffffffffffffffffffffff1673ffffffffffffffffffffffffffffffffffffffff168152602001908152602001600020600001600460008673ffffffffffffffffffffffffffffffffffffffff1673ffffffffffffffffffffffffffffffffffffffff16815260200190815260200160002060010154600460008773ffffffffffffffffffffffffffffffffffffffff1673ffffffffffffffffffffffffffffffffffffffff168152602001908152602001600020600301828054610c7b90613c95565b80601f0160208091040260200160405190810160405280929190818152602001828054610ca790613c95565b8015610cf45780601f10610cc957610100808354040283529160200191610cf4565b820191906000526020600020905b815481529060010190602001808311610cd757829003601f168201915b5050505050925080805480602002602001604051908101604052809291908181526020016000905b828210156112c757838290600052602060002090600a0201604051806101400160405290816000820160009054906101000a900473ffffffffffffffffffffffffffffffffffffffff1673ffffffffffffffffffffffffffffffffffffffff1673ffffffffffffffffffffffffffffffffffffffff168152602001600182018054610da690613c95565b80601f0160208091040260200160405190810160405280929190818152602001828054610dd290613c95565b8015610e1f5780601f10610df457610100808354040283529160200191610e1f565b820191906000526020600020905b815481529060010190602001808311610e0257829003601f168201915b50505050508152602001600282018054610e3890613c95565b80601f0160208091040260200160405190810160405280929190818152602001828054610e6490613c95565b8015610eb15780601f10610e8657610100808354040283529160200191610eb1565b820191906000526020600020905b815481529060010190602001808311610e9457829003601f168201915b50505050508152602001600382018054610eca90613c95565b80601f0160208091040260200160405190810160405280929190818152602001828054610ef690613c95565b8015610f435780601f10610f1857610100808354040283529160200191610f43565b820191906000526020600020905b815481529060010190602001808311610f2657829003601f168201915b50505050508152602001600482018054610f5c90613c95565b80601f0160208091040260200160405190810160405280929190818152602001828054610f8890613c95565b8015610fd55780601f10610faa57610100808354040283529160200191610fd5565b820191906000526020600020905b815481529060010190602001808311610fb857829003601f168201915b50505050508152602001600582018054610fee90613c95565b80601f016020809104026020016040519081016040528092919081815260200182805461101a90613c95565b80156110675780601f1061103c57610100808354040283529160200191611067565b820191906000526020600020905b81548152906001019060200180831161104a57829003601f168201915b5050505050815260200160068201805461108090613c95565b80601f01602080910402602001604051908101604052809291908181526020018280546110ac90613c95565b80156110f95780601f106110ce576101008083540402835291602001916110f9565b820191906000526020600020905b8154815290600101906020018083116110dc57829003601f168201915b5050505050815260200160078201805461111290613c95565b80601f016020809104026020016040519081016040528092919081815260200182805461113e90613c95565b801561118b5780601f106111605761010080835404028352916020019161118b565b820191906000526020600020905b81548152906001019060200180831161116e57829003601f168201915b505050505081526020016008820180546111a490613c95565b80601f01602080910402602001604051908101604052809291908181526020018280546111d090613c95565b801561121d5780601f106111f25761010080835404028352916020019161121d565b820191906000526020600020905b81548152906001019060200180831161120057829003601f168201915b5050505050815260200160098201805461123690613c95565b80601f016020809104026020016040519081016040528092919081815260200182805461126290613c95565b80156112af5780601f10611284576101008083540402835291602001916112af565b820191906000526020600020905b81548152906001019060200180831161129257829003601f168201915b50505050508152505081526020019060010190610d1c565b5050505090509250925092509193909250565b606080600460008573ffffffffffffffffffffffffffffffffffffffff1673ffffffffffffffffffffffffffffffffffffffff168152602001908152602001600020600001600560008573ffffffffffffffffffffffffffffffffffffffff1673ffffffffffffffffffffffffffffffffffffffff16815260200190815260200160002060000181805461136d90613c95565b80601f016020809104026020016040519081016040528092919081815260200182805461139990613c95565b80156113e65780601f106113bb576101008083540402835291602001916113e6565b820191906000526020600020905b8154815290600101906020018083116113c957829003601f168201915b505050505091508080546113f990613c95565b80601f016020809104026020016040519081016040528092919081815260200182805461142590613c95565b80156114725780601f1061144757610100808354040283529160200191611472565b820191906000526020600020905b81548152906001019060200180831161145557829003601f168201915b50505050509050915091509250929050565b61148e33826104ef565b50565b6060600033905060008314156115ab5784600460003373ffffffffffffffffffffffffffffffffffffffff1673ffffffffffffffffffffffffffffffffffffffff16815260200190815260200160002060000190805190602001906114f7929190612ff9565b5083600460003373ffffffffffffffffffffffffffffffffffffffff1673ffffffffffffffffffffffffffffffffffffffff168152602001908152602001600020600101819055506001819080600181540180825580915050600190039060005260206000200160009091909190916101000a81548173ffffffffffffffffffffffffffffffffffffffff021916908373ffffffffffffffffffffffffffffffffffffffff160217905550849150506116c3565b60018314156116be5784600560008373ffffffffffffffffffffffffffffffffffffffff1673ffffffffffffffffffffffffffffffffffffffff168152602001908152602001600020600001908051906020019061160a929190612ff9565b5083600560008373ffffffffffffffffffffffffffffffffffffffff1673ffffffffffffffffffffffffffffffffffffffff168152602001908152602001600020600101819055506002819080600181540180825580915050600190039060005260206000200160009091909190916101000a81548173ffffffffffffffffffffffffffffffffffffffff021916908373ffffffffffffffffffffffffffffffffffffffff160217905550849150506116c3565b600080fd5b9392505050565b600080600090505b600080549050811015611769578273ffffffffffffffffffffffffffffffffffffffff166000828154811061170a57611709613d9f565b5b9060005260206000200160009054906101000a900473ffffffffffffffffffffffffffffffffffffffff1673ffffffffffffffffffffffffffffffffffffffff16141561175657600191505b808061176190613cf8565b9150506116d2565b50806117aa576040517f08c379a00000000000000000000000000000000000000000000000000000000081526004016117a190613aae565b60405180910390fd5b6000829080600181540180825580915050600190039060005260206000200160009091909190916101000a81548173ffffffffffffffffffffffffffffffffffffffff021916908373ffffffffffffffffffffffffffffffffffffffff1602179055505050565b6000805b6002805490508110156118ac573373ffffffffffffffffffffffffffffffffffffffff166002828154811061184d5761184c613d9f565b5b9060005260206000200160009054906101000a900473ffffffffffffffffffffffffffffffffffffffff1673ffffffffffffffffffffffffffffffffffffffff16141561189957600191505b80806118a490613cf8565b915050611815565b50806118ed576040517f08c379a00000000000000000000000000000000000000000000000000000000081526004016118e490613ace565b60405180910390fd5b60006040518061014001604052808c73ffffffffffffffffffffffffffffffffffffffff1681526020018b81526020018a81526020018981526020018881526020018781526020018681526020018581526020018481526020016040518060400160405280600381526020017f6e657700000000000000000000000000000000000000000000000000000000008152508152509050600460008c73ffffffffffffffffffffffffffffffffffffffff1673ffffffffffffffffffffffffffffffffffffffff1681526020019081526020016000206003018190806001815401808255809150506001900390600052602060002090600a020160009091909190915060008201518160000160006101000a81548173ffffffffffffffffffffffffffffffffffffffff021916908373ffffffffffffffffffffffffffffffffffffffff1602179055506020820151816001019080519060200190611a51929190612ff9565b506040820151816002019080519060200190611a6e929190612ff9565b506060820151816003019080519060200190611a8b929190612ff9565b506080820151816004019080519060200190611aa8929190612ff9565b5060a0820151816005019080519060200190611ac5929190612ff9565b5060c0820151816006019080519060200190611ae2929190612ff9565b5060e0820151816007019080519060200190611aff929190612ff9565b50610100820151816008019080519060200190611b1d929190612ff9565b50610120820151816009019080519060200190611b3b929190612ff9565b505050600560003373ffffffffffffffffffffffffffffffffffffffff1673ffffffffffffffffffffffffffffffffffffffff1681526020019081526020016000206008018190806001815401808255809150506001900390600052602060002090600a020160009091909190915060008201518160000160006101000a81548173ffffffffffffffffffffffffffffffffffffffff021916908373ffffffffffffffffffffffffffffffffffffffff1602179055506020820151816001019080519060200190611c0d929190612ff9565b506040820151816002019080519060200190611c2a929190612ff9565b506060820151816003019080519060200190611c47929190612ff9565b506080820151816004019080519060200190611c64929190612ff9565b5060a0820151816005019080519060200190611c81929190612ff9565b5060c0820151816006019080519060200190611c9e929190612ff9565b5060e0820151816007019080519060200190611cbb929190612ff9565b50610100820151816008019080519060200190611cd9929190612ff9565b50610120820151816009019080519060200190611cf7929190612ff9565b5050505050505050505050505050565b86600560008a73ffffffffffffffffffffffffffffffffffffffff1673ffffffffffffffffffffffffffffffffffffffff1681526020019081526020016000206000019080519060200190611d5d929190612ff9565b5085600560008a73ffffffffffffffffffffffffffffffffffffffff1673ffffffffffffffffffffffffffffffffffffffff1681526020019081526020016000206001018190555084600560008a73ffffffffffffffffffffffffffffffffffffffff1673ffffffffffffffffffffffffffffffffffffffff1681526020019081526020016000206002019080519060200190611dfb929190612ff9565b5083600560008a73ffffffffffffffffffffffffffffffffffffffff1673ffffffffffffffffffffffffffffffffffffffff1681526020019081526020016000206003019080519060200190611e52929190612ff9565b5080600560008a73ffffffffffffffffffffffffffffffffffffffff1673ffffffffffffffffffffffffffffffffffffffff1681526020019081526020016000206006019080519060200190611ea9929190612ff9565b5082600560008a73ffffffffffffffffffffffffffffffffffffffff1673ffffffffffffffffffffffffffffffffffffffff1681526020019081526020016000206004019080519060200190611f00929190612ff9565b5081600560008a73ffffffffffffffffffffffffffffffffffffffff1673ffffffffffffffffffffffffffffffffffffffff1681526020019081526020016000206005019080519060200190611f57929190612ff9565b506002889080600181540180825580915050600190039060005260206000200160009091909190916101000a81548173ffffffffffffffffffffffffffffffffffffffff021916908373ffffffffffffffffffffffffffffffffffffffff1602179055505050505050505050565b6060600560008373ffffffffffffffffffffffffffffffffffffffff1673ffffffffffffffffffffffffffffffffffffffff168152602001908152602001600020600801805480602002602001604051908101604052809291908181526020016000905b828210156125d457838290600052602060002090600a0201604051806101400160405290816000820160009054906101000a900473ffffffffffffffffffffffffffffffffffffffff1673ffffffffffffffffffffffffffffffffffffffff1673ffffffffffffffffffffffffffffffffffffffff1681526020016001820180546120b390613c95565b80601f01602080910402602001604051908101604052809291908181526020018280546120df90613c95565b801561212c5780601f106121015761010080835404028352916020019161212c565b820191906000526020600020905b81548152906001019060200180831161210f57829003601f168201915b5050505050815260200160028201805461214590613c95565b80601f016020809104026020016040519081016040528092919081815260200182805461217190613c95565b80156121be5780601f10612193576101008083540402835291602001916121be565b820191906000526020600020905b8154815290600101906020018083116121a157829003601f168201915b505050505081526020016003820180546121d790613c95565b80601f016020809104026020016040519081016040528092919081815260200182805461220390613c95565b80156122505780601f1061222557610100808354040283529160200191612250565b820191906000526020600020905b81548152906001019060200180831161223357829003601f168201915b5050505050815260200160048201805461226990613c95565b80601f016020809104026020016040519081016040528092919081815260200182805461229590613c95565b80156122e25780601f106122b7576101008083540402835291602001916122e2565b820191906000526020600020905b8154815290600101906020018083116122c557829003601f168201915b505050505081526020016005820180546122fb90613c95565b80601f016020809104026020016040519081016040528092919081815260200182805461232790613c95565b80156123745780601f1061234957610100808354040283529160200191612374565b820191906000526020600020905b81548152906001019060200180831161235757829003601f168201915b5050505050815260200160068201805461238d90613c95565b80601f01602080910402602001604051908101604052809291908181526020018280546123b990613c95565b80156124065780601f106123db57610100808354040283529160200191612406565b820191906000526020600020905b8154815290600101906020018083116123e957829003601f168201915b5050505050815260200160078201805461241f90613c95565b80601f016020809104026020016040519081016040528092919081815260200182805461244b90613c95565b80156124985780601f1061246d57610100808354040283529160200191612498565b820191906000526020600020905b81548152906001019060200180831161247b57829003601f168201915b505050505081526020016008820180546124b190613c95565b80601f01602080910402602001604051908101604052809291908181526020018280546124dd90613c95565b801561252a5780601f106124ff5761010080835404028352916020019161252a565b820191906000526020600020905b81548152906001019060200180831161250d57829003601f168201915b5050505050815260200160098201805461254390613c95565b80601f016020809104026020016040519081016040528092919081815260200182805461256f90613c95565b80156125bc5780601f10612591576101008083540402835291602001916125bc565b820191906000526020600020905b81548152906001019060200180831161259f57829003601f168201915b50505050508152505081526020019060010190612029565b505050509050919050565b600181815481106125ef57600080fd5b906000526020600020016000915054906101000a900473ffffffffffffffffffffffffffffffffffffffff1681565b600560008273ffffffffffffffffffffffffffffffffffffffff1673ffffffffffffffffffffffffffffffffffffffff168152602001908152602001600020600701339080600181540180825580915050600190039060005260206000200160009091909190916101000a81548173ffffffffffffffffffffffffffffffffffffffff021916908373ffffffffffffffffffffffffffffffffffffffff160217905550600460003373ffffffffffffffffffffffffffffffffffffffff1673ffffffffffffffffffffffffffffffffffffffff168152602001908152602001600020600201819080600181540180825580915050600190039060005260206000200160009091909190916101000a81548173ffffffffffffffffffffffffffffffffffffffff021916908373ffffffffffffffffffffffffffffffffffffffff16021790555050565b606060028054806020026020016040519081016040528092919081815260200182805480156127eb57602002820191906000526020600020905b8160009054906101000a900473ffffffffffffffffffffffffffffffffffffffff1673ffffffffffffffffffffffffffffffffffffffff16815260200190600101908083116127a1575b5050505050905090565b6000818154811061280557600080fd5b906000526020600020016000915054906101000a900473ffffffffffffffffffffffffffffffffffffffff1681565b606060018054806020026020016040519081016040528092919081815260200182805480156128b857602002820191906000526020600020905b8160009054906101000a900473ffffffffffffffffffffffffffffffffffffffff1673ffffffffffffffffffffffffffffffffffffffff168152602001906001019080831161286e575b5050505050905090565b606060006060806060806060600560008973ffffffffffffffffffffffffffffffffffffffff1673ffffffffffffffffffffffffffffffffffffffff168152602001908152602001600020600001600560008a73ffffffffffffffffffffffffffffffffffffffff1673ffffffffffffffffffffffffffffffffffffffff16815260200190815260200160002060010154600560008b73ffffffffffffffffffffffffffffffffffffffff1673ffffffffffffffffffffffffffffffffffffffff168152602001908152602001600020600201600560008c73ffffffffffffffffffffffffffffffffffffffff1673ffffffffffffffffffffffffffffffffffffffff168152602001908152602001600020600301600560008d73ffffffffffffffffffffffffffffffffffffffff1673ffffffffffffffffffffffffffffffffffffffff168152602001908152602001600020600401600560008e73ffffffffffffffffffffffffffffffffffffffff1673ffffffffffffffffffffffffffffffffffffffff168152602001908152602001600020600501600560008f73ffffffffffffffffffffffffffffffffffffffff1673ffffffffffffffffffffffffffffffffffffffff168152602001908152602001600020600601868054612aa990613c95565b80601f0160208091040260200160405190810160405280929190818152602001828054612ad590613c95565b8015612b225780601f10612af757610100808354040283529160200191612b22565b820191906000526020600020905b815481529060010190602001808311612b0557829003601f168201915b50505050509650848054612b3590613c95565b80601f0160208091040260200160405190810160405280929190818152602001828054612b6190613c95565b8015612bae5780601f10612b8357610100808354040283529160200191612bae565b820191906000526020600020905b815481529060010190602001808311612b9157829003601f168201915b50505050509450838054612bc190613c95565b80601f0160208091040260200160405190810160405280929190818152602001828054612bed90613c95565b8015612c3a5780601f10612c0f57610100808354040283529160200191612c3a565b820191906000526020600020905b815481529060010190602001808311612c1d57829003601f168201915b50505050509350828054612c4d90613c95565b80601f0160208091040260200160405190810160405280929190818152602001828054612c7990613c95565b8015612cc65780601f10612c9b57610100808354040283529160200191612cc6565b820191906000526020600020905b815481529060010190602001808311612ca957829003601f168201915b50505050509250818054612cd990613c95565b80601f0160208091040260200160405190810160405280929190818152602001828054612d0590613c95565b8015612d525780601f10612d2757610100808354040283529160200191612d52565b820191906000526020600020905b815481529060010190602001808311612d3557829003601f168201915b50505050509150808054612d6590613c95565b80601f0160208091040260200160405190810160405280929190818152602001828054612d9190613c95565b8015612dde5780601f10612db357610100808354040283529160200191612dde565b820191906000526020600020905b815481529060010190602001808311612dc157829003601f168201915b505050505090509650965096509650965096509650919395979092949650565b60008060005b8480549050811015612e9c578373ffffffffffffffffffffffffffffffffffffffff16858281548110612e3a57612e39613d9f565b5b9060005260206000200160009054906101000a900473ffffffffffffffffffffffffffffffffffffffff1673ffffffffffffffffffffffffffffffffffffffff161415612e8957600192508091505b8080612e9490613cf8565b915050612e04565b5081612ea757600080fd5b600184805490501415612ef957838181548110612ec757612ec6613d9f565b5b9060005260206000200160006101000a81549073ffffffffffffffffffffffffffffffffffffffff0219169055612ff3565b8360018580549050612f0b9190613be3565b81548110612f1c57612f1b613d9f565b5b9060005260206000200160009054906101000a900473ffffffffffffffffffffffffffffffffffffffff16848281548110612f5a57612f59613d9f565b5b9060005260206000200160006101000a81548173ffffffffffffffffffffffffffffffffffffffff021916908373ffffffffffffffffffffffffffffffffffffffff1602179055508360018580549050612fb49190613be3565b81548110612fc557612fc4613d9f565b5b9060005260206000200160006101000a81549073ffffffffffffffffffffffffffffffffffffffff02191690555b50505050565b82805461300590613c95565b90600052602060002090601f016020900481019282613027576000855561306e565b82601f1061304057805160ff191683800117855561306e565b8280016001018555821561306e579182015b8281111561306d578251825591602001919060010190613052565b5b50905061307b919061307f565b5090565b5b80821115613098576000816000905550600101613080565b5090565b60006130af6130aa84613b13565b613aee565b9050828152602081018484840111156130cb576130ca613e02565b5b6130d6848285613c53565b509392505050565b6000813590506130ed81613e74565b92915050565b600082601f83011261310857613107613dfd565b5b813561311884826020860161309c565b91505092915050565b60008135905061313081613e8b565b92915050565b60006020828403121561314c5761314b613e0c565b5b600061315a848285016130de565b91505092915050565b6000806040838503121561317a57613179613e0c565b5b6000613188858286016130de565b9250506020613199858286016130de565b9150509250929050565b60008060008060008060008060006101208a8c0312156131c6576131c5613e0c565b5b60006131d48c828d016130de565b99505060208a013567ffffffffffffffff8111156131f5576131f4613e07565b5b6132018c828d016130f3565b98505060408a013567ffffffffffffffff81111561322257613221613e07565b5b61322e8c828d016130f3565b97505060608a013567ffffffffffffffff81111561324f5761324e613e07565b5b61325b8c828d016130f3565b96505060808a013567ffffffffffffffff81111561327c5761327b613e07565b5b6132888c828d016130f3565b95505060a08a013567ffffffffffffffff8111156132a9576132a8613e07565b5b6132b58c828d016130f3565b94505060c08a013567ffffffffffffffff8111156132d6576132d5613e07565b5b6132e28c828d016130f3565b93505060e08a013567ffffffffffffffff81111561330357613302613e07565b5b61330f8c828d016130f3565b9250506101008a013567ffffffffffffffff81111561333157613330613e07565b5b61333d8c828d016130f3565b9150509295985092959850929598565b600080600080600080600080610100898b03121561336e5761336d613e0c565b5b600061337c8b828c016130de565b985050602089013567ffffffffffffffff81111561339d5761339c613e07565b5b6133a98b828c016130f3565b97505060406133ba8b828c01613121565b965050606089013567ffffffffffffffff8111156133db576133da613e07565b5b6133e78b828c016130f3565b955050608089013567ffffffffffffffff81111561340857613407613e07565b5b6134148b828c016130f3565b94505060a089013567ffffffffffffffff81111561343557613434613e07565b5b6134418b828c016130f3565b93505060c089013567ffffffffffffffff81111561346257613461613e07565b5b61346e8b828c016130f3565b92505060e089013567ffffffffffffffff81111561348f5761348e613e07565b5b61349b8b828c016130f3565b9150509295985092959890939650565b6000806000606084860312156134c4576134c3613e0c565b5b600084013567ffffffffffffffff8111156134e2576134e1613e07565b5b6134ee868287016130f3565b93505060206134ff86828701613121565b925050604061351086828701613121565b9150509250925092565b6000602082840312156135305761352f613e0c565b5b600061353e84828501613121565b91505092915050565b60006135538383613573565b60208301905092915050565b600061356b838361371c565b905092915050565b61357c81613c17565b82525050565b61358b81613c17565b82525050565b600061359c82613b64565b6135a68185613b9f565b93506135b183613b44565b8060005b838110156135e25781516135c98882613547565b97506135d483613b85565b9250506001810190506135b5565b5085935050505092915050565b60006135fa82613b6f565b6136048185613bb0565b93508360208202850161361685613b54565b8060005b858110156136525784840389528151613633858261355f565b945061363e83613b92565b925060208a0199505060018101905061361a565b50829750879550505050505092915050565b600061366f82613b7a565b6136798185613bc1565b9350613689818560208601613c62565b61369281613e11565b840191505092915050565b60006136a882613b7a565b6136b28185613bd2565b93506136c2818560208601613c62565b6136cb81613e11565b840191505092915050565b60006136e3601483613bd2565b91506136ee82613e22565b602082019050919050565b6000613706601483613bd2565b915061371182613e4b565b602082019050919050565b6000610140830160008301516137356000860182613573565b506020830151848203602086015261374d8282613664565b915050604083015184820360408601526137678282613664565b915050606083015184820360608601526137818282613664565b9150506080830151848203608086015261379b8282613664565b91505060a083015184820360a08601526137b58282613664565b91505060c083015184820360c08601526137cf8282613664565b91505060e083015184820360e08601526137e98282613664565b9150506101008301518482036101008601526138058282613664565b9150506101208301518482036101208601526138218282613664565b9150508091505092915050565b61383781613c49565b82525050565b60006020820190506138526000830184613582565b92915050565b60006101408201905061386e600083018d613582565b8181036020830152613880818c61369d565b90508181036040830152613894818b61369d565b905081810360608301526138a8818a61369d565b905081810360808301526138bc818961369d565b905081810360a08301526138d0818861369d565b905081810360c08301526138e4818761369d565b905081810360e08301526138f8818661369d565b905081810361010083015261390d818561369d565b9050818103610120830152613922818461369d565b90509b9a5050505050505050505050565b6000602082019050818103600083015261394d8184613591565b905092915050565b6000602082019050818103600083015261396f81846135ef565b905092915050565b60006020820190508181036000830152613991818461369d565b905092915050565b600060408201905081810360008301526139b3818561369d565b905081810360208301526139c7818461369d565b90509392505050565b600060608201905081810360008301526139ea818661369d565b90506139f9602083018561382e565b8181036040830152613a0b81846135ef565b9050949350505050565b600060e0820190508181036000830152613a2f818a61369d565b9050613a3e602083018961382e565b8181036040830152613a50818861369d565b90508181036060830152613a64818761369d565b90508181036080830152613a78818661369d565b905081810360a0830152613a8c818561369d565b905081810360c0830152613aa0818461369d565b905098975050505050505050565b60006020820190508181036000830152613ac7816136d6565b9050919050565b60006020820190508181036000830152613ae7816136f9565b9050919050565b6000613af8613b09565b9050613b048282613cc7565b919050565b6000604051905090565b600067ffffffffffffffff821115613b2e57613b2d613dce565b5b613b3782613e11565b9050602081019050919050565b6000819050602082019050919050565b6000819050602082019050919050565b600081519050919050565b600081519050919050565b600081519050919050565b6000602082019050919050565b6000602082019050919050565b600082825260208201905092915050565b600082825260208201905092915050565b600082825260208201905092915050565b600082825260208201905092915050565b6000613bee82613c49565b9150613bf983613c49565b925082821015613c0c57613c0b613d41565b5b828203905092915050565b6000613c2282613c29565b9050919050565b600073ffffffffffffffffffffffffffffffffffffffff82169050919050565b6000819050919050565b82818337600083830152505050565b60005b83811015613c80578082015181840152602081019050613c65565b83811115613c8f576000848401525b50505050565b60006002820490506001821680613cad57607f821691505b60208210811415613cc157613cc0613d70565b5b50919050565b613cd082613e11565b810181811067ffffffffffffffff82111715613cef57613cee613dce565b5b80604052505050565b6000613d0382613c49565b91507fffffffffffffffffffffffffffffffffffffffffffffffffffffffffffffffff821415613d3657613d35613d41565b5b600182019050919050565b7f4e487b7100000000000000000000000000000000000000000000000000000000600052601160045260246000fd5b7f4e487b7100000000000000000000000000000000000000000000000000000000600052602260045260246000fd5b7f4e487b7100000000000000000000000000000000000000000000000000000000600052603260045260246000fd5b7f4e487b7100000000000000000000000000000000000000000000000000000000600052604160045260246000fd5b600080fd5b600080fd5b600080fd5b600080fd5b6000601f19601f8301169050919050565b7f796f7520617265206e6f7420616e2061646d696e000000000000000000000000600082015250565b7f596f7520617265206e6f74206120646f63746f72000000000000000000000000600082015250565b613e7d81613c17565b8114613e8857600080fd5b50565b613e9481613c49565b8114613e9f57600080fd5b5056fea26469706673582212207ccf453a69a3e8068366578c1d35730f33183d339b450a3f5eac88068c99a63964736f6c63430008070033",
  "linkReferences": {},
  "deployedLinkReferences": {}
}